S01500006E726632346C30312D6E6F64652E73726563C3
S1130000282100200D3200000533000005330000D4
S113001000000000000000000000000000000000DC
S11300200000000000000000000000000533000094
S1130030000000000000000005330000053300004C
S113004005330000053300000533000005330000CC
S1130050912500000533000005330000053300003E
S113006005330000053300000533000005330000AC
S1130070053300000533000005330000053300009C
S1130080053300000533000005330000053300008C
S1130090053300000533000005330000053300007C
S11300A0053300000533000005330000053300006C
S11300B00000000010B5064C2378002B07D1054B37
S11300C0002B02D0044800E000BF0123237010BDC0
S11300D0100000200000000000530000084B10B581
S11300E0002B03D00749084800E000BF0748036815
S11300F0002B00D110BD064B002BFBD09847F9E72D
S11301000000000014000020005300000053000011
S11301100000000080B582B000AF78607B68002BDF
S11301200CD0084B7A685A60064B00229A60C0468D
S1130130044B1A6880235B021340F9D0C046BD46C5
S113014002B080BD10E000E080B500AF00200F4B8E
S1130150984702000E4B1A600D4B18680D4BFA229B
S11301609100984703001A00094B1A60084B18685D
S1130170084BFA229100984703001A00064B1A60B4
S1130180064B05221A60C046BD4680BDC12D000045
S113019000000020C93400000400002010E000E04A
S11301A080B582B000AF786004E0074B1B6818008C
S11301B0064B98477B685A1E7A60002BF5D1C046DF
S11301C0BD4602B080BDC0460000002015010000FD
S11301D080B582B000AF78607B6800221A70C04698
S11301E0BD4602B080BD000080B582B000AF020001
S11301F03960FB1D1A70FB1D1B78012B0AD0022BE2
S11302000FD0002B14D10E4B0D4A91693A680A4362
S11302109A610FE00A4B0A4AD1693A680A43DA61E3
S113022008E0074B064A116A3A680A431A6201E079
S1130230172300E000231800BD4602B080BDC0466D
S11302400004004080B582B000AF0200FB1D1A70AC
S1130250064BFA1D127811001F220A400121914019
S11302600A001A60C046BD4602B080BD00E100E04D
S113027080B582B000AF0F4B3B6000237B6011E080
S11302807B689B0008229446BC446344083B1B687B
S11302905B78DBB25BB2002B01DA012306E07B68FA
S11302A001337B607B68002BEAD000231800BD4635
S11302B002B080BD0018004080B584B000AF2D4B63
S11302C07B60402100202C4B98473B0018002B4BAF
S11302D098473B0000221A703B0019000520284B68
S11302E098470520274B98470023FB6018E0FB68DC
S11302F09B0010229446BC4463440C3B1A68FB6880
S11303009B0010218C46BC4463440C3B1B681B7847
S1130310DBB201210B43DBB21370FB680133FB60DA
S1130320FB68002BE3D0C046174B9847031EFBD154
S11303300B23FB1800221A700DE00B23FB181A780C
S1130340124B92000021D1500B23FB181A780B2377
S1130350FB1801321A700B23FB181B780F2BECD9F6
S113036004200B4B98470B4B9847C046BD4604B03E
S113037080BDC04600180040E9010000D101000022
S1130380992E0000DD2E00007102000054000020B0
S1130390450200009903000080B582B000AF154B00
S11303A03B6000237B6018E07B689B000822944636
S11303B0BC446344083B1A687B689B0008218C4654
S11303C0BC446344083B1B681B78DBB202210B432B
S11303D0DBB213707B6801337B607B68002BE3D056
S11303E0C046054B9847031EFBD1C046BD4602B02C
S11303F080BDC046001800407102000080B582B084
S113040000AF78607B6800221A70C046BD4602B017
S113041080BD80B586B000AFF860B9607A601623FD
S1130420FB1800221A80BB683B61BB685A08FB6852
S11304309A4201D2402326E0BB685B083B610AE094
S11304403A69FB68D31A3B611623FB181A881623F2
S1130450FB1801321A803A69FB689A42F0D21623DB
S1130460FB181622BA181288013A1A801623FB18B0
S11304701B88FF2B01D9402305E07B681622BA189C
S113048012881A8000231800BD4606B080BD000003
S113049080B584B000AF0200FB1D1A70BB1D0A1C9E
S11304A01A701A4B1B7801225340DBB2002B03D184
S11304B0BB1D1B78002B1BD00C23FB181800144BFE
S11304C098470C23FB18FA1D12781A700C23FB189A
S11304D0190013200F4B984713200F4B98470B4BD1
S11304E0FA1D12785A70094B01221A70002308E091
S11304F0064B5B78FA1D12789A4201D1002300E082
S11305001D231800BD4604B080BDC0462C00002049
S1130510FD030000992E0000DD2E000080B582B09E
S113052000AF78600A00FB1C1A707B684D4A934246
S11305303FD04C4A934206D84B4A93420FD04B4A81
S1130540934221D089E04A4A934200D15BE0494A70
S1130550934200D16CE0484A93423FD07DE0FB1CBB
S11305601B78012B0AD002DC002B05D075E0022B8E
S113057006D0032B06D070E0404B6FE0404B6DE09B
S1130580404B6BE0404B69E0FB1C1B78012B0AD00D
S113059002DC002B05D060E0022B06D0032B06D032
S11305A05BE003235AE0394B58E0394B56E0394BB2
S11305B054E0FB1C1B78012B0AD002DC002B05D075
S11305C04BE0022B06D0032B06D046E0324B45E02D
S11305D0324B43E0324B41E0324B3FE0FB1C1B7893
S11305E0012B0AD002DC002B05D036E0022B06D00A
S11305F0032B06D031E02C4B30E02C4B2EE02C4B5F
S11306002CE02C4B2AE0FB1C1B78012B0AD002DCCB
S1130610002B05D021E0022B06D0032B06D01CE0D2
S1130620254B1BE0254B19E0254B17E0254B15E026
S1130630FB1C1B78012B0AD002DC002B05D00CE03C
S1130640022B06D0032B06D007E01F4B06E01F4BFE
S113065004E01F4B02E01F4B00E000231800BD46DE
S113066002B080BD0010004200080042000C0042AD
S113067000180042001C0042001400420300040061
S11306800300050003000600030007000300010047
S113069003001E0003001F000300080003000900FC
S11306A003000A0003000B00030010000300110004
S11306B0030012000300130003000C0003000D00EC
S11306C003000E0003000F000300160003001700D0
S11306D0030018000300190090B58BB000AF7860D8
S11306E00C23FB180F4A13CA13C313CA13C30023E2
S11306F07B620EE00C23FB187A6A9200D3581A002E
S11307007B689A4202D17B6ADBB206E07B6A0133E2
S11307107B627B6A052BEDD900231800BD460BB024
S113072090BDC0460052000080B582B000AF786032
S11307300A00BB1C1A807B681B787F221340DAB244
S11307407B681A700B490C4B012218000B4B98471D
S1130750BB1C1A887968084B1800094B984705494F
S1130760054B00221800054B9847C046BD4602B011
S113077080BDC046DC000020E0000020C120000055
S1130780B121000090B585B000AF78600800110079
S1130790BB1C021C1A807B1C0A1C1A707B1C1B7855
S11307A0802252421343DBB29AB20E23FB181A8002
S11307B01049114B01221800104B98470E23F918C9
S11307C00D4B012218000E4B98470E23FB181C8872
S11307D0BB1C1A887968084823000A4CA0470549BD
S11307E0054B00221800054B9847C046BD4605B08E
S11307F090BDC046DC000020E0000020C1200000C5
S1130800B1210000151F000090B585B000AF7860DD
S11308100E23FB18FA221A800E490F4B01221800EE
S11308200E4B98470E23F9180B4B012218000C4B62
S1130830984779680848002303220A4CA0470549D1
S1130840054B00221800054B9847C046BD4605B02D
S113085090BDC046DC000020E0000020C120000064
S1130860B1210000151F000090B585B000AF78607D
S11308700E23FB18F7221A800E490F4B0122180091
S11308800E4B98470E23F9180B4B012218000C4B02
S1130890984779680848002303220A4CA047054971
S11308A0054B00221800054B9847C046BD4605B0CD
S11308B090BDC046DC000020E0000020C120000004
S11308C0B1210000151F000090B585B000AF78601D
S11308D00E23FB18FD221A800E490F4B012218002B
S11308E00E4B98470E23F9180B4B012218000C4BA2
S11308F0984779680848002302220A4CA047054912
S1130900054B00221800054B9847C046BD4605B06C
S113091090BDC046DC000020E0000020C1200000A3
S1130920B1210000151F000090B583B000AFBB1DBE
S113093088221A801549164B01221800154B984736
S1130940B91D134B01221800134B98471349104843
S113095000231A22124CA047BB1DE1221A80B91DA4
S11309600B4B012218000C4B98470E4908480023F2
S113097007220B4CA0470549054B00221800054BE4
S11309809847C046BD4603B090BDC046DC00002079
S1130990E0000020C1200000B121000098000020E8
S11309A0151F0000B200002080B500AF6C4B5B78CF
S11309B09BB21B029AB26A4B1B789BB2D3189AB2B1
S11309C0684B1A80664BDB789BB21B029AB2644B6D
S11309D09B789BB2D3189BB21AB2634B1A80604BBC
S11309E05B799BB21B029AB25D4B1B799BB2D31805
S11309F09BB21AB25D4B1A80594BDB799BB21B0236
S1130A009AB2574B9B799BB2D3189AB2584B1A801F
S1130A10534B5B7A9BB21B029AB2514B1B7A9BB22B
S1130A20D3189BB21AB2534B1A804D4BDB7A9BB24C
S1130A301B029AB24A4B9B7A9BB2D3189BB21AB24E
S1130A404D4B1A80464B5B7B9BB21B029AB2444BC4
S1130A501B7B9BB2D3189BB21AB2484B1A80404BF3
S1130A60DB7B9BB21B029AB23D4B9B7B9BB2D318A0
S1130A709BB21AB2424B1A80394B5B7C9BB21B026D
S1130A809AB2374B1B7C9BB2D3189BB21AB23D4B24
S1130A901A80334BDB7C9BB21B029AB2304B9B7C9B
S1130AA09BB2D3189BB21AB2374B1A802C4B5B7D86
S1130AB09BB21B029AB22A4B1B7D9BB2D3189BB2EA
S1130AC01AB2324B1A80264BDB7D9BB21B029AB2C0
S1130AD0234B9B7D9BB2D3189BB21AB22C4B1A802A
S1130AE01F4B1A7E2B4B1A701D4B9B7E9BB21B0215
S1130AF09AB21B4B5B7E9BB2D3189BB21AB2264BA5
S1130B001A80174BDA7E254B1A70154B5B7F9BB20C
S1130B101B019AB2124B1B7F9BB20F210B409BB25D
S1130B20D3189BB21AB21E4B1A800D4BDB7F9BB2BB
S1130B301B019AB20A4B9B7F1B09DBB29BB20F21AC
S1130B400B409BB2D3189BB21AB2164B1A80044BBB
S1130B5020229B5C5AB2144B1A70C046BD4680BD1D
S1130B6098000020D600002094000020CC00002033
S1130B70C2000020C8000020D8000020D0000020BF
S1130B80EE000020C6000020EC000020C40000207D
S1130B90D2000020F6000020F4000020D400002041
S1130BA096000020CE000020CA000020F0B58BB0D3
S1130BB000AFF860594BF8689847594C0022594BDC
S1130BC0A04703000C001D002600574B1A88574B02
S1130BD010009847524C0022554BA04703000C00CC
S1130BE01A002300534C28003100A04703000C00D6
S1130BF01D002600504B00229A5E484B1000984777
S1130C0002000B004D4C28003100A04703000C00EB
S1130C103B627C62414BF8689847414C0022822336
S1130C20DB05A04703000C001D0026003E4B1A887C
S1130C303E4B100098473A4C0022414BA04703001A
S1130C400C001A0023003B4C28003100A04703008D
S1130C500C001D002600314BF8689847304C0022E8
S1130C608223DB05A04703000C003B607C602E4B15
S1130C701A882E4B10009847294C0022304BA0476D
S1130C8003000C001A0023002A4C38687968A04736
S1130C9003000C001A002300284C28003100A04750
S1130CA003000C001D002600264B00229A5E1B4BFD
S1130CB01000984702000B00204C28003100A04788
S1130CC003000C00BB61FC611F4CBA69FB69386A04
S1130CD0796AA04703000C00190022001B4B08008E
S1130CE01100984702001A4B1A60174CBA69FB6945
S1130CF0386A796AA04703000C0018002100084CE8
S1130D000022144BA04703000C003B617C613B694B
S1130D107C6918002100BD460BB0F0BD795000007D
S1130D207D3C00000000D040D6000020FD500000B3
S1130D3000009040E549000094000020E5440000D4
S1130D400000C040CC0000205D36000011500000BF
S1130D50F80000200000B440F0B589B000AF78601E
S1130D60B84B1A68B84B10009847B84C002280233F
S1130D70DB05A04703000C0018002100B44C00223E
S1130D80B44BA04703000C00BB61FC61B24CBA69D0
S1130D90FB69B869F969A04703000C001D0026002F
S1130DA0AE4B00229A5EA84B1000984702000B003D
S1130DB0A94C28003100A04703000C0018002100B2
S1130DC0A24C0022A64BA04703000C003B617C61AF
S1130DD0A44B00229A5E9C4B100098479E4CBA6923
S1130DE0FB69A04703000C00180021009E4C020080
S1130DF00B00A04703000C001A0023009A4C38692A
S1130E007969A04703000C003B617C618F4C002290
S1130E10964B38697969A04703000C001D00260031
S1130E20934B00229A5E884B100098478A4C00220C
S1130E30904BA04703000C001A0023008A4C2800A2
S1130E403100A04703000C003B617C618A4B002207
S1130E509A5E7D4B100098477F4CBA69FB69A047A6
S1130E6003000C00180021007B4CBA69FB69A04701
S1130E7003000C0018002100744C00227F4BA04793
S1130E8003000C001D0026007D4B00229A5E6E4B71
S1130E9010009847704CBA69FB69A04703000C0026
S1130EA01A002300704C28003100A04703000C00F6
S1130EB018002100654C0022704BA04703000C0071
S1130EC0BB61FC61614C0022654BB869F969A047BC
S1130ED003000C0018002100634C0022694BA0475A
S1130EE003000C001D002600674B1A88674B100096
S1130EF0984702000B00584C28003100A04703001B
S1130F000C00BB61FC61624C00220023B869F969E2
S1130F10A047031E02D0002300248EE04A4B7868C9
S1130F20984702000B004A4C00205A49A04703008E
S1130F300C00BB60FC60454C0022574B3869796952
S1130F40A04703000C001A002300414CB868F9685C
S1130F50A04703000C00180021003F4C00224F4B17
S1130F60A04703000C0018002100384CBA69FB6943
S1130F70A04703000C00BB60FC60494B00229A5E52
S1130F80314B10009847344CBA68FB68A047030003
S1130F900C0018002100304CBA68FB68A04703001D
S1130FA00C0018002100294C00223E4BA0470300EE
S1130FB00C00BB61FC613C4B00229A5E224B10008A
S1130FC09847254CBA68FB68A04703000C0018003A
S1130FD021001E4C0022224BA04703000C003B6161
S1130FE07C61214C3A697B69B869F969A0470300BF
S1130FF00C001D0026002D4B00229A5E124B10009F
S1131000984702000B00184C28003100A047030049
S11310100C00180021000D4C0022254BA0470300B2
S11310200C001A002300104CB868F968A0470300AC
S11310300C00BB60FC60BB68FC6818002100BD4666
S113104009B0F0BDF8000020795000007D3C00009C
S1131050E54900000040EF40E5440000C6000020E0
S11310600000E040EE0000205D360000000010406B
S1131070D00000200000F040D800002000002041F3
S1131080C80000200000F03FC2000020FD50000016
S113109001360000000030410000B040006AB84052
S11310A0D20000200000E041C4000020EC00002039
S11310B000003040F0B589B000AF7861754B1A6814
S11310C0754B10009847754C0022754BA0470300E0
S11310D00C00BB61FC61704B7869984705000E00F9
S11310E0704B00229A5E6C4B100098476E4C0022A5
S11310F06E4BA04703000C00BB60FC606C4B0021EE
S11311005A5E654B100098476A4C00226A4BA04710
S113111003000C0018002100634CBA69FB69A04766
S113112003000C001A002300644CB868F968A04757
S113113003000C001A002300584C28003100A0477B
S113114003000C001D0026005D4B00229A5E524BEA
S113115010009847574C00225A4BA04703000C003C
S1131160BB60FC60584B00229A564B4B10009847CA
S1131170504C0022554BA04703000C0018002100DE
S1131180494CBA69FB69A04703000C003B607C60D2
S11311904F4B1A784F4B10009847464C00224B4B4C
S11311A0A04703000C00180021003F4CBA69FB69FA
S11311B0A04703000C0018002100404C0022464BBD
S11311C0A04703000C001A002300374C38687968E4
S11311D0A04703000C0018002100384C00223E4BAD
S11311E0A04703000C001A0023002F4CB868F968CC
S11311F0A04703000C001A0023002B4C28003100E8
S1131200A04703000C00BB61FC61344B1A78314BDE
S113121010009847244CBA69FB69A04703000C00EE
S113122018002100234C00222D4BA04703000C0082
S11312301A002300194C00202749A04703000C0082
S11312401A002300184CB869F969A04703000C0080
S1131250BB61FC61234C0022234BB869F969A047A8
S1131260031E04D00023204CBB61FC610BE01F4C27
S113127000220023B869F969A047031E03D00023A4
S11312800024BB61FC61BB69FC6918002100BD46F8
S113129009B0F0BDF800002079500000E5490000D5
S11312A000C0F24096000020E544000000005040D9
S11312B0CE0000207D3C00000000D0405D360000E0
S11312C0F40000200000F040CA000020000090411B
S11312D0D4000020FD5000000000F03FF600002084
S11312E00000204135360000000059400D36000052
S11312F080B584B000AF0200FB1D1A700F23FB18E9
S1131300FA1D1278D2091A700E23FB18FA1D1278EE
S113131052091A700D4BBB600F23FB181B78002B6E
S11313200FD10F23FB181B789B0010229446BC445A
S11313306344083B1A680E23FB181B78DB01D3189F
S113134000E000231800BD4604B080BD0044004105
S113135080B582B000AF0200FB1D1A70FB1D1B7824
S11313601800034B984703001800BD4602B080BD27
S1131370F112000080B582B000AF78607B68002273
S11313801A707B6801225A707B6800229A70C046EA
S1131390BD4602B080BD000080B584B000AF02003D
S11313A0FB1D1A70BB1D0A1C1A70FB1D1B7818004C
S11313B00D4B98470300FB60FB1D1B781F22134055
S11313C001229A401300BB60BB1D1B78002B03D085
S11313D0FB68BA689A6102E0FB68BA685A61C04661
S11313E0BD4604B080BDC0465113000080B584B032
S11313F000AF78607B681B68FB60FB68DB695A1E82
S11314009341DBB21800BD4604B080BD80B582B004
S113141000AF78607B6801221A707B6800225A60F2
S11314207B6800229A607B68C0229203DA607B6842
S113143000221A747B6800225A747B6801229A7411
S11314407B680122DA747B6800221A757B68242287
S1131450002199547B6818330C22002118000A4B90
S113146098477B68094A9A617B6800229A627B6884
S11314700022DA627B6800221A637B6800225A63C6
S1131480C046BD4602B080BDF1510000A0860100F7
S113149080B582B000AF78607B680A221A707B68DE
S11314A000225A707B6800229A70C046BD4602B082
S11314B080BD000080B584B000AF786039603B68BF
S11314C01A787B681A703B685A787B685A703B6854
S11314D09A787B689A700C23FB1818000B4B98477A
S11314E00C23FB1801221A707B681B780C22BA1893
S11314F011001800064B98477B681B7801211800DF
S1131500044B9847C046BD4604B080BD7513000027
S1131510252600009913000080B584B000AF7860E0
S11315207B681B68FB60C0467B681800064B9847C5
S1131530031EF9D1FB681B6802221A43FB681A6078
S1131540C046BD4604B080BDED13000080B590B028
S113155000AF3B1D1800234B98473B1D0A221A700D
S11315603A1D214B11001800204B98473B001800EE
S11315701C4B98473B000C221A703A001C4B11007C
S113158018001A4B98470823FB181800194B984762
S11315900823FB18C0229203DA600823FB18164ABA
S11315A09A620823FB18154ADA620823FB18012201
S11315B052421A630823FB18114A5A630823FB1882
S11315C001229A740823FA180E490F4B18000F4B86
S11315D098470D4B18000E4B9847C046BD4610B0B7
S11315E080BDC04691140000DC000020B51400004A
S11315F0F00000200D1400000200080002000900A1
S113160002000B0000080042E00000200D1E000054
S11316101915000080B582B000AF78607B68802225
S11316201A707B6800225A707B6801229A707B686A
S11316300022DA70C046BD4602B080BD80B584B0D9
S113164000AF0200FB1D1A700F23FB18FA1D12785D
S1131650D2091A700E23FB18FA1D127852091A7057
S11316600D4BBB600F23FB181B78002B0FD10F23EE
S1131670FB181B789B0010229446BC446344083B2F
S11316801A680E23FB181B78DB01D31800E0002333
S11316901800BD4604B080BD0044004180B586B04A
S11316A000AF0200FB1D1A70FB1D1B781800194BBC
S11316B0984703007B61FB1D1B781F2213403B618D
S11316C07A6940213B69D3185B181B78DBB21A0096
S11316D00123134001D1802318E03B695B087A6938
S11316E03021D3185B181B78DBB2FB603B69012205
S11316F0134006D0FB681B09DBB20F221340DBB298
S113170004E0FB68DBB20F221340DBB21800BD46D5
S113171006B080BD3D16000080B582B000AF020067
S1131720FB1D1A70FB1D1B781800034B9847030020
S11317301800BD4602B080BD3D16000080B584B0DF
S113174000AF0200FB1D1A70BB1D0A1C1A70FB1DA2
S11317501B7818000D4B98470300FB60FB1D1B789A
S11317601F22134001229A401300BB60BB1D1B784B
S1131770002B03D0FB68BA689A6102E0FB68BA6880
S11317805A61C046BD4604B080BDC046191700006A
S113179080B582B000AF78607B6800221A70C046C2
S11317A0BD4602B080BD000080B582B000AF02002B
S11317B03960FB1D1A70FB1D1B78012B0AD0022B0C
S11317C00FD0002B14D10E4B0D4A91693A680A438D
S11317D09A610FE00A4B0A4AD1693A680A43DA610E
S11317E008E0074B064A116A3A680A431A6201E0A4
S11317F0172300E000231800BD4602B080BDC04698
S11318000004004080B500AF054B9B78DBB21A00A2
S1131810022313405A1E9341DBB21800BD4680BD1B
S11318200020004180B584B000AF78607B681B68FD
S1131830FB60FB681B7EDBB21A00022313405A1EB6
S11318409341DBB21800BD4604B080BD80B584B0BE
S113185000AF78607B681B68FB60FB681B7EDBB2B3
S11318601A00012313405A1E9341DBB21800BD46EF
S113187004B080BD80B584B000AF78607B681B681D
S1131880FB60FB681B7EDBB21A00042313405A1E64
S11318909341DBB21800BD4604B080BD80B584B06E
S11318A000AF78600A00BB1C1A807B681B68FB6071
S11318B07B6818000A4B984703001A000123534021
S11318C0DBB2002B01D0052306E0BB1C1B88DB0523
S11318D0DA0DFB689A6200231800BD4604B080BD8F
S11318E04D18000080B584B000AF786039607B6823
S11318F01B68BB607B6818001B4B984703001A00E9
S113190001235340DBB2002B01D0102327E00F2327
S1131910FB1800221A70BB685B8B9BB21A0004236D
S1131920134006D00F23FB181E221A70BB68042232
S11319305A837B689B79012B08D1BB689B6A9BB255
S1131940DB05DB0D9AB23B681A8005E0BB689B6A35
S1131950DBB29AB23B681A800F23FB181B7818007D
S1131960BD4604B080BDC0467518000080B584B083
S113197000AF78607B681B68FB60FB6802221A7604
S1131980C046BD4604B080BD90B593B000AF78604A
S113199039607B681B687B637B681B683B631C2323
S11319A0FB181800854B98471C23FB1800225A701B
S11319B03B681B78002B03D11C23FB1800229A7070
S11319C03B689A6A0C23FB181A603B68DA6A0C239A
S11319D0FB185A603B681A6B0C23FB189A603B682F
S11319E05A6B0C23FB18DA604723FB1800221A7089
S11319F02CE04723FB181A780C23FB189200D358C9
S1131A003B643B6C002B09D14723FB181A783B6BD2
S1131A10110018006A4B984703003B643B6C013388
S1131A200DD03B6CDAB21C23FB181A703B6C1B0CF8
S1131A30DBB21C22BA1811001800624B98474723E6
S1131A40FB181A784723FB1801321A704723FB1836
S1131A501B78032BCDD93B681A787B685A713B6895
S1131A601A7C7B689A713B689A7C7B68DA713B6864
S1131A701A7D7B681A720A23FB1800221A8000233D
S1131A80FB630023BB633B681B78012B29D17B6874
S1131A901B6818004C4B98470300FB62FB6A143325
S1131AA0BB62BB6ADBB21800484B984703007B62F9
S1131AB03B689B692322BC180A22BA18796A180069
S1131AC0434B9847030023702323FB181B78002BF8
S1131AD001D017236DE00A23FB181B88DAB27B6B55
S1131AE01A733B681B78002B1AD13B689B69FB6314
S1131AF03B689B8BBB637B6B5B6A3A68927F11008C
S1131B003A68D27F12040A431A437B6B5A623B68D9
S1131B1020229B5C002B03D0BB6B40221343BB638E
S1131B203B685B68FA6B1343FB633B689B68FA6B27
S1131B301343FB633B68DB68FA6B1343FB633B684B
S1131B401B7C1A00BB6B1343BB633B685B7C002BA1
S1131B5003D1204B9847031E03D0FB6B8022134311
S1131B60FB633B689B7C002B04D0BB6B80229202FE
S1131B701343BB633B68DB7C002B04D0BB6B80222C
S1131B8092001343BB633B681B7D002B04D0BB6BEB
S1131B90802292011343BB637B6B1A68FB6B1A436D
S1131BA07B6B1A607B6B5A68BB6B1A437B6B5A6006
S1131BB000231800BD4613B090BDC04615160000A2
S1131BC01D05000085310000D9060000BD2F00006E
S1131BD0130400000518000090B591B000AF7860C0
S1131BE039607B681B68FB627B681B68BB623B686F
S1131BF09A6A0C23FB181A603B68DA6A0C23FB18F8
S1131C005A603B681A6B0C23FB189A603B685A6B4A
S1131C100C23FB18DA603F23FB1800221A7030E013
S1131C203F23FB181A780C23FB189200D358BB638C
S1131C30BB6B002B09D13F23FB181A78BB6A110038
S1131C4018006E4B98470300BB63BB6B013310D085
S1131C50BB6B1B041C0CBB6B1B0CDBB21800684B6E
S1131C60984703009C4205D07B6800221A601C231D
S1131C70BFE0C0463F23FB181A783F23FB1801320C
S1131C801A703F23FB181B78032BC9D913205D4B13
S1131C90984703007B6200237B6300233B6300239C
S1131CA03B623B681B78012B21D13B689B691F2257
S1131CB0BC180A22BA18796A1800534B98470300D3
S1131CC023701F23FB181B78002B01D0172390E0EF
S1131CD0FB6A1B7BDAB20A23FB181B88DBB29A422D
S1131CE001D01C2385E07B6B0C2213437B633B6890
S1131CF01B78002B29D13B689B697A6B13437B6368
S1131D003B689B8B1A003B6B13433B633B689B7F95
S1131D101A003B68DB7F1B0413431A003B6A13431E
S1131D203B62FB6A1A683B6A9A4201D01C2360E05A
S1131D303B6820229B5C002B03D03B6B4022134367
S1131D403B637B6B082213437B633B685B687A6B62
S1131D5013437B633B689B687A6B13437B633B68E9
S1131D60DB687A6B13437B633B681B7C1A003B6B19
S1131D7013433B633B685B7C002B03D07B6B80226B
S1131D8013437B633B689B7C002B04D03B6B80221A
S1131D90920213433B633B68DB7C002B04D03B6B18
S1131DA08022920013433B633B681B7D002B04D0CD
S1131DB03B6B8022920113433B637B6B02221343F0
S1131DC07B63FB6A1A687B6B9A420ED1FB6A5A6882
S1131DD03B6B9A4209D13B681A787B685A713B681D
S1131DE01A7C7B689A71002303E07B6800221A60E6
S1131DF01C231800BD4611B090BDC0461D0500004F
S1131E009D160000BD2F00001304000080B58AB0A9
S1131E1000AFF860B9607A60FB68BA681A60FB6862
S1131E201B687B627B6A1B680222134007D07A68B6
S1131E30FB68110018002F4B9847030055E07B6A9C
S1131E401B680122134001D005234EE0FB681B6888
S1131E501800294B984703003B623B6A0233FB613D
S1131E603B6A1433BB610122FB699A4013001900D9
S1131E700220224B98471423FB181800204B984744
S1131E807B6824229A5C1423FB181A70BB69DBB2AA
S1131E901422BA18110018001A4B9847BB69DBB218
S1131EA01800194B98477B6824229B5C002118007A
S1131EB0164B98477B681B78012B05D17B6A1B68FE
S1131EC00C221A437B6A1A607B681B78002B05D1AD
S1131ED07B6A1B6808221A437B6A1A607A68FB686B
S1131EE0110018000A4B984703001800BD460AB0B9
S1131EF080BDC046D91B0000D9060000A917000008
S1131F0091170000992E0000DD2E000091040000BE
S1131F108919000090B589B000AFF860B960190064
S1131F20BB1D1A803B1D0A1C1A80BB1D1B88002B7D
S1131F3001D11723B2E0FB68DB7901225340DBB205
S1131F40002B01D01C23A9E0FB685B79002B09D18D
S1131F50FB681800534B9847031E03D0FB68180016
S1131F60514B98471E23FB1800221A808DE0FB6812
S1131F705B79012B12D1C046FB6818004B4B984784
S1131F8003001A0001235340DBB2002BF4D13B1DA4
S1131F901A88FB6811001800454B9847FB685B7969
S1131FA0002B2AD10023BB6108E0FB681800414BD9
S1131FB09847031E07D1BB690133BB61BB693E4A25
S1131FC09342F2D900E0C046FB681800354B9847AD
S1131FD0031E05D0FB681800334B984704235DE0CB
S1131FE0FB681800334B984703001A000123534041
S1131FF0DBB2002B01D0122350E0C046FB6818006E
S11320002C4B984703001A0001235340DBB2002BEA
S1132010F4D11423FB1800221A801723FC1814236C
S1132020FA18FB6811001800244B9847030023702A
S11320301723FB181B78002B03D01723FB181B78DE
S11320402CE01E23FB181B881E22BA18591C118071
S11320501A00BB689B181422BA181288D2B21A70DC
S1132060FB689B79012B10D11E23FB181B881E22B1
S1132070BA18591C11801A00BB689B181422BA188C
S11320801288120A92B2D2B21A70BB1D1B88BA1DF2
S1132090591E1180002B00D069E700231800BD46AB
S11320A009B090BD251800006D1900004D180000FE
S11320B09D1800007518000010270000E5180000A6
S11320C080B586B000AFF860B960FB1D1A70FB687C
S11320D05B79012B01D015235CE0FB681B7A01229C
S11320E05340DBB2002B54D0FB1D1B78002B4AD08D
S11320F0BB685B78002B3FD0FB681800274B9847E0
S113210003001A0001235340DBB2002B07D0BB6845
S11321101B7801211800224B984705233AE0BB683D
S11321201B78002118001E4B9847BB689B789AB215
S1132130FB68110018001B4B9847FB68DB790122F0
S11321405340DBB2002B24D0C046FB681800164B6A
S1132150984703001A0001235340DBB2002BF4D14B
S11321601623FB1800221A801623FA18FB681100A4
S113217018000E4B98470CE0BB681B780021180030
S1132180074B984705E0BB681B7801211800044BF6
S1132190984700231800BD4606B080BD4D180000C6
S11321A03D1700009D18000075180000E518000098
S11321B080B58AB000AFF860B960BB1D1A80BB1D42
S11321C01B88002B01D117236AE1FB685B79002B84
S11321D009D1FB681800B44B9847031E03D0FB6871
S11321E01800B24B98472623FB1800221A80242398
S11321F0FB18BA1D12881A80FEE0FB685B79002B7D
S11322002AD100233B6208E0FB681800A84B9847DA
S1132210031E07D13B6A01333B623B6AA54A9342E2
S1132220F2D900E0C046FB6818009F4B9847031E94
S113223005D0FB6818009D4B9847042330E1FB68E8
S113224018009B4B984703001A0001235340DBB24C
S1132250002B01D0122323E1C046FB681800944BE5
S1132260984703001A0001235340DBB2002BF4D13A
S11322702623FB181B882622BA18591C11801A0021
S1132280BB689B181A781E23FB181A80FB689B797D
S1132290012B15D12623FB181B882622BA18591C9A
S11322A011801A00BB689B181B781B021AB21E23EC
S11322B0FB1800215B5E13431AB21E23FB181A801D
S11322C01E23FB181A88FB68110018007A4B9847E4
S11322D0FB68DB792422BA18242179180988118033
S11322E0002B00D188E0FB685B79002B00D069E00B
S11322F00023BB6147E0BB1D1B88002B3AD0FB6861
S113230018006B4B9847031E34D02623FB181B88F8
S11323102622BA18591C11801A00BB689B181A7817
S11323201E23FB181A80FB689B79012B15D12623E9
S1132330FB181B882622BA18591C11801A00BB6886
S11323409B181B781B021AB21E23FB1800215B5E2C
S113235013431AB21E23FB181A801E23FB181A8873
S1132360FB6811001800544B9847BB1D1A88BB1D0D
S1132370013A1A80FB681800504B9847031E07D196
S1132380BB690133BB61BB694A4A9342B3D900E0DC
S1132390C046FB681800444B9847031E05D0FB68F1
S11323A01800424B984704237AE0FB681800434B1B
S11323B0984703001A0001235340DBB2002B01D0DD
S11323C012236DE0C046FB6818003C4B984703009D
S11323D01A0001235340DBB2002BF4D11223FA1864
S11323E0FB6811001800364B98472423FB181A8801
S11323F02423FB18013A1A80BB1D1B88BA1D591EE1
S11324001180002B00D0F8E6FB685B79012B0BD11F
S1132410C046FB681800244B984703001A000123A8
S11324205340DBB2002BF4D1FB685B79002B36D12F
S1132430FB68DB79002B32D02CE000237B6108E0C1
S1132440FB6818001D4B9847031E07D17B690133B5
S11324507B617B69174A9342F2D900E0C046FB686E
S11324601800164B984703001A0001235340DBB2AF
S1132470002B01D0122313E01023FA18FB6811007B
S113248018000F4B98472423FB181A882423FB18A1
S1132490013A1A802423FB181B88002BCDD100237A
S11324A01800BD460AB080BD251800006D19000053
S11324B04D180000102700009D180000751800003A
S11324C0E518000080B584B000AF0200FB1D1A704F
S11324D00F23FB18FA1D127852091A700F23FB18E8
S11324E01B78002B0CD1094BBB600F23FB181B7806
S11324F09B0010229446BC446344083B1B6800E0E4
S113250000231800BD4604B080BDC046001800403A
S113251080B584B000AF0200FB1D1A70FB1D1B7850
S113252018000B4B98470300FB60FB1D1B781F2210
S1132530134001229A401300BB60FB681B69BA6810
S113254013405A1E9341DBB21800BD4604B080BD4F
S1132550C524000080B584B000AF0200FB1D1A70D2
S1132560FB1D1B781800094B98470300FB60FB1DFB
S11325701B781F22134001229A401300BB60FB68A2
S1132580BA681A61C046BD4604B080BDC5240000C7
S113259080B500AF154B00221A7020E0134B1B7856
S11325A01800134B9847031E13D0104B1B781800C8
S11325B0104B98470D4B1B781A000F4B9200D358C1
S11325C0002B06D0094B1B781A000B4B9200D358F2
S11325D09847064B1B780133DAB2044B1A70034B4D
S11325E01B780F2BDAD9C046BD4680BDFC00002005
S11325F011250000552500005400002080B582B04C
S113260000AF78607B6880221A707B6800225A7061
S11326107B6801229A707B680022DA70C046BD464E
S113262002B080BD80B584B000AF02003960FB1DEC
S11326301A700C23FB181800104B98470C23FB1836
S113264080221A703B681A780C23FB185A703B6876
S11326505A780C23FB189A703B689A780C23FB1861
S1132660DA700C23FA18FB1D1B7811001800044BB8
S11326709847C046BD4604B080BDC046FD25000055
S11326808531000080B500AFC046BD4680BD000066
S113269080B582B000AF104B1B68002B12D1EFF352
S11326A010837B607B68002B09D172B6BFF35F8F08
S11326B00A4B00221A700A4B01221A7002E0084BDE
S11326C000221A70044B1B685A1C034B1A60C04644
S11326D0BD4602B080BDC046300000200800002086
S11326E03400002080B500AF0B4B1B685A1E0A4B08
S11326F01A60094B1B68002B0AD1084B1B78DBB20C
S1132700002B05D0064B01221A70BFF35F8F62B60F
S1132710C046BD4680BDC0463000002034000020C5
S11327200800002080B582B000AF78607B68012289
S11327305A607B6800225A707B6806221A707B6894
S113274000221A727B6800225A72C046BD4602B04B
S113275080BD80B582B000AF78607B6803221A70B8
S11327607B6800225A707B6801229A70C046BD467D
S113277002B080BD80B582B000AF0200FB1D1A70AC
S1132780034AFB1D1B781372C046BD4602B080BDD0
S11327900004004080B582B000AF0200FB1D1A7037
S11327A0BB1D0A1C1A70FB1D1B78012B08D0022BC1
S11327B00BD0002B0ED10B4ABB1D1B7853720BE0C0
S11327C0084ABB1D1B78937206E0064ABB1D1B78A2
S11327D0D37201E0172300E000231800BD4602B0C5
S11327E080BDC0460004004080B582B000AF020046
S11327F0FB1D1A70084AFB1D1B780F210B40D9B230
S113280053680F20014049001E2083430B4353604B
S1132810C046BD4602B080BD0040004180B500AF57
S1132820C046044BDB6810221340FAD0C046BD46B4
S113283080BDC0460008004080B500AF0C4B0222AA
S11328409A840C4B98470A4A0B4B9B68D362084AFC
S1132850094B5B689362064B00229A84054B9847A8
S1132860034A054B1B689BB29384C046BD4680BD9A
S1132870000800401D2800003800002080B582B008
S113288000AF0200FB1D1A70FB1D1B78082B41D8FA
S11328909A00234BD3181B689F46224B1B693AE0CE
S11328A0214B1B6A9B059B0FDBB21A001F4BD340C5
S11328B031E080231B022EE080231B022BE0194B06
S11328C05B6928E0174B1B680222134001D10023E7
S11328D021E0174B9847134B1B6824221340042B09
S11328E009D10020134B984702000E4B9B681B0430
S11328F01B0C53430FE0104B0DE00B4A5023D35CE9
S1132900DBB21A000423134001D1002303E0054B7A
S1132910DB6800E000231800BD4602B080BDC0465D
S113292018520000380000200008004000127A000D
S11329301D280000BD2F0000006CDC0280B584B0AF
S113294000AF78601A4B1B6AFB607B681B781A1C0B
S113295003231340DAB20D23FB1803210A401000AD
S11329601A7803218A43111C021C0A431A707B68DB
S11329709A780C23FB18D0011A787F210A40111C85
S1132980021C0A431A707B685A780C23FB18012135
S11329900A4090011A7840218A43111C021C0A4300
S11329A01A70034BFA681A62C046BD4604B080BD73
S11329B00008004080B582B000AF0200FB1D1A7011
S11329C0FB1D1B78082B3BD89A00214BD3181B689E
S11329D09F46204B1F4A126A02210A431A620023AF
S11329E031E01C4B1B4A926902210A439A6129E097
S11329F0184A184B1B8A9BB202210B439BB21382C9
S1132A0020E0144A134B9B8A9BB202210B439BB2D6
S1132A10938217E0104B1B6802221A430E4B1A6074
S1132A200E4B98470EE00B4A0A494423CB5CDBB2B9
S1132A3002210B43D9B24423D15403E0002302E022
S1132A40172300E000231800BD4602B080BDC04635
S1132A503C520000000800403800002039280000E3
S1132A6080B582B000AF3B0001221A7000237B6066
S1132A7009E07B68DBB23A0011001800054B984767
S1132A807B6801337B607B68242BF2D9C046BD464A
S1132A9002B080BD992E000080B5A0B000AF274BD6
S1132AA0C222D2009A600020254B9847254B9847B4
S1132AB07C23FB181800244B98477C23FB18002226
S1132AC01A707C23FB1801229A707C23FB180022C5
S1132AD05A707C23FB1818001C4B984706201C4B8B
S1132AE098471C4B984700201B4B98470021002017
S1132AF01A4B984700210120184B984700210220C7
S1132B00164B98473B1D1800154B98473B1D062252
S1132B101A703B1D01225A603B1D00221A723B1D94
S1132B2000225A723B1D190000200E4B98470020CA
S1132B300D4B9847C046BD4620B080BD00080040FC
S1132B40E9270000612A0000532700003D29000006
S1132B50B5290000112C00007527000095270000FE
S1132B6025270000412C0000652D000080B582B0AF
S1132B7000AF02003960FB1D1A70FB1D1B78012B8E
S1132B800AD0022B0FD0002B14D10E4B0D4A9169A1
S1132B903A680A439A610FE00A4B0A4AD1693A68D3
S1132BA00A43DA6108E0074B064A116A3A680A43A5
S1132BB01A6201E0172300E000231800BD4602B0AA
S1132BC080BDC0460004004080B500AF024B98476A
S1132BD0C046BD4680BDC0469126000080B500AF0A
S1132BE0024B9847C046BD4680BDC046E52600005E
S1132BF080B500AF054B5B78DBB25BB2002B01DA2A
S1132C00012300E000231800BD4680BD000C0040F5
S1132C1080B500AF08210020074B9847074B0122DD
S1132C201A70C046054B1B78DBB21A00012313400F
S1132C30F8D1C046BD4680BD6D2B0000000C00409D
S1132C4080B586B000AF02003960FB1D1A70FB1D11
S1132C501B787B61FB1D1B783B613B681B781B0267
S1132C601A007B6913437B613B685B78002B04D0BB
S1132C707B698022D20213437B613B685B7A002B21
S1132C8004D07B698022120313437B613B685B6839
S1132C90012B2CD93B685A683B685B68013B1340A5
S1132CA01AD10023FB600223BB6005E0FB680133FB
S1132CB0FB60BB685B00BB603B685A68BB689A42B8
S1132CC0F4D8FB681B023A6913433B617B69802299
S1132CD0520313437B610AE03B685B681B023A6959
S1132CE013433B617B698022920213437B613B68FF
S1132CF01B7A002B04D07B698022920313437B61EF
S1132D00C046134B9847031EFBD1124B9847124AF7
S1132D10FB1D1B781370C0460D4B9847031EFBD157
S1132D200E4B3A699A60C046094B9847031EFBD183
S1132D300A4B0A4A51688022520211407A690A43B6
S1132D405A60074B9847C046BD4606B080BDC04692
S1132D50F12B0000C92B0000080C0040000C0040BF
S1132D60DD2B000080B582B000AF0200FB1D1A709D
S1132D70C0460E4B9847031EFBD10D4B98470D4A96
S1132D80FB1D1B781370C046084B9847031EFBD1EC
S1132D90094B094A5268802149020A435A60074B89
S1132DA09847C046BD4602B080BDC046F12B000026
S1132DB0C92B0000040C0040000C0040DD2B000077
S1132DC080B586B000AF0200FB1D1A70C0462A4BC6
S1132DD09847031EFBD1294B9847294AFB1D1B78B2
S1132DE01370C046244B9847031EFBD1254B5B68E8
S1132DF0DB04DB0EDBB21800234B984703007B6136
S1132E001F4AFB1D1B7813701E4B5B68DB02DB0F34
S1132E10DAB21323FB181A701C4AFB1D1B781370BB
S1132E20C046154B9847031EFBD1164B9B681B02EB
S1132E301B0C9BB2FB60164B98471323FB181B78A3
S1132E40002B09D1FB68012B06D9124BF96878696C
S1132E50984703007B610AE01323FB181B78002BBF
S1132E6005D0FB6801337A69DA4013007B617B6922
S1132E701800BD4606B080BDF12B0000C92B000030
S1132E80040C0040000C00407D280000080C0040A9
S1132E90DD2B0000C934000080B584B000AF02000F
S1132EA03960FB1D1A70FB1D1B78FB603B681B78A7
S1132EB01B021A00FB681343FB60FB1D1B78180000
S1132EC0044B9847044BFA6892B25A80C046BD46F8
S1132ED004B080BD252F0000000C004080B582B0F6
S1132EE000AF0200FB1D1A700A4B98470A4AFB1DEB
S1132EF01B7813700949094B5B889BB28022D2016D
S1132F0013439BB24B80064B9847C046BD4602B064
S1132F1080BDC046C92B0000020C0040000C0040DC
S1132F20DD2B000080B584B000AF0200FB1D1A70D9
S1132F301C4B98471C4AFB1D1B7813701B4B5B886A
S1132F401B051B0FDBB2FB60184A538818490B4062
S1132F505380164A154B5B889BB216490B409BB2B3
S1132F605380C046114B5B889BB21A008023DB015F
S1132F701340F7D10D4AFB68DBB2191C0F230B4039
S1132F80D9B25388081C0F210140080208490B409C
S1132F90191C031C0B435380074B9847C046BD467E
S1132FA004B080BDC92B0000020C0040000C00409E
S1132FB0FFF0FFFFFFBFFFFFDD2B000080B584B0F3
S1132FC000AF0200FB1D1A700D4B98470D4AFB1D04
S1132FD01B7813700C4B5B881B051B0FDAB20F2395
S1132FE0FB181A70094B98470F23FB181B7818001D
S1132FF0074B984703001800BD4604B080BDC04687
S1133000C92B0000020C0040000C0040DD2B000026
S1133010C12D000080B584B000AF0200FB1D1A7002
S11330200F23FB18FA1D1278D2091A700E23FB180D
S1133030FA1D127852091A700D4BBB600F23FB184E
S11330401B78002B0FD10F23FB181B789B00102239
S11330509446BC446344083B1A680E23FB181B784F
S1133060DB01D31800E000231800BD4604B080BD86
S11330700044004180B588B000AFF860B9607A6060
S11330800023FB617B68DB7801225340DBB2002B19
S113309035D07B681B78802B0BD0FB6980225202D1
S11330A01343FB617B681B781B061A00FB691343FF
S11330B0FB617B685B78002B03D07B685B78022B19
S11330C010D1FB69802292021343FB617B689B78D9
S11330D0002B04D0FB698022D2021343FB61FB68FE
S11330E0BA685A607B685B78012B03D07B685B7895
S11330F0022B07D1FB69224A1340FB6102E0FB6803
S1133100BA685A60BB681B041B0CBB61BB681B0C10
S11331107B61BA69FB691343A022D2051A43FB6899
S11331209A627A69FB691343D02212061A43FB6838
S11331309A627B68DB7801225340DBB2002B1AD001
S1133140FA698023DB0213400AD07B689B78012B49
S113315003D1FB68BA689A6102E0FB68BA685A61F5
S11331607B685B78012B03D07B685B78022B02D1F0
S1133170FB68BA689A60C046BD4608B080BDC046C8
S1133180FFFFFBFF80B584B000AF02003960FB1D78
S11331901A70FB1D1B7818000A4B98470300FB604C
S11331A0FB1D1B781F22134001229A401300BB60B1
S11331B03A68B968FB681800034B9847C046BD4697
S11331C004B080BD153000007530000080B500AF3C
S11331D0C046BD4680BD000080B500AF064B984791
S11331E0064B9847064B9847064B9847064B98471B
S11331F0C046BD4680BDC046992A00008526000011
S1133200CD310000B9020000CD31000080B582B09C
S113321000AF2F4B7B602F4B3B607A683B689A4230
S11332200CD007E03B681A1D3A607A68111D79607A
S113323012681A603A68284B9A42F3D3274B3B60D2
S113324004E03B681A1D3A6000221A603A68244B75
S11332509A42F6D3234B7B60234B7A68FF218A433F
S11332609A60224A90235B000221D150204AD378ED
S113327003218B43191C02230B43D3701C4AD378BC
S11332800C218B43191C08230B43D370194A937BDD
S113329030218B43191C20230B439373154A937BD2
S11332A00C218B43191C08230B439373114A937B02
S11332B003218B43191C02230B4393730E4A536857
S11332C080210B4353600D4B98470D4B9847FEE705
S11332D00053000000000020100000201000002017
S11332E0240100200000000000ED00E00070004117
S11332F0005000410048004100400041A951000035
S11333001D33000080B582B000AFEFF305837B600E
S11333107A68014B1A60F8E70C00002090B587B07A
S113332000AF524B9847524B9847524B9847002353
S11333307B6108E00C23FA187B69D31800221A7009
S11333407B6901337B617B69062BF3DD0A204A4BE1
S113335098474A4B98474A4B98474A4BD0220121F9
S11333601800494B9847FB1D00221A70FB1DF222DE
S113337001211800444B98470823FB18F2221A70C5
S11333800823FB1801225A700823FB180221180095
S11333903E4B98470823FB18F4221A700823FB18A5
S11333A026225A700823FB1802211800374B98472D
S11333B00823FB18F5221A700823FB18C0225A7040
S11333C00823FB1802211800304B98470A202A4B87
S11333D09847FA235B001800274B98472C4B18009A
S11333E02C4B98472C4B18002C4B98472C4B18000F
S11333F02C4B9847264B1B781A03254B5B781B01F3
S1133400D318234A92781209D2B29B181800264B7B
S1133410984703000C00254A136054601E4B1B7828
S11334201A031D4B5B781B01D3181B4A92781209AF
S1133430D2B29B1818001E4B98471E4C00221E4BFC
S1133440A04703000C001D4A13605460144B1B7802
S11334501B02134A52789B181800194B9847030013
S11334600C00184A13605460B3E7C046D931000019
S1133470490100004D150000A101000029090000C8
S1133480A90900005000002085070000290700005A
S11334902001002009080000040100206908000040
S11334A000010020C9080000AD0B00001801002035
S11334B0590D00007D3C000000005940100100201F
S11334C0B510000008010020002243088B4274D389
S11334D003098B425FD3030A8B4244D3030B8B4211
S11334E028D3030C8B420DD3FF22090212BA030C1A
S11334F08B4202D31212090265D0030B8B4219D3FB
S113350000E0090AC30B8B4201D3CB03C01A52411A
S1133510830B8B4201D38B03C01A5241430B8B4262
S113352001D34B03C01A5241030B8B4201D30B034B
S1133530C01A5241C30A8B4201D3CB02C01A524172
S1133540830A8B4201D38B02C01A5241430A8B4235
S113355001D34B02C01A5241030A8B4201D30B021E
S1133560C01A5241CDD2C3098B4201D3CB01C01A38
S1133570524183098B4201D38B01C01A5241430942
S11335808B4201D34B01C01A524103098B4201D330
S11335900B01C01A5241C3088B4201D3CB00C01A9D
S11335A0524183088B4201D38B00C01A5241430815
S11335B08B4201D34B00C01A5241411A00D201463A
S11335C0524110467047FFE701B5002000F006F8AD
S11335D002BDC0460029F7D076E770477047C04661
S11335E08446101C62468C46191C634600E0C046A3
S11335F01FB500F015FF002801D40021C8421FBDEB
S113360010B500F06FFE4042013010BD10B500F05F
S113361007FF002801DB002010BD012010BDC046BB
S113362010B500F0FDFE002801DD002010BD0120D2
S113363010BDC04610B500F08FFE002801DC00204C
S113364010BD012010BDC04610B500F085FE002855
S113365001DA002010BD012010BDC046F8B5454672
S1133660DE4657464E460C03E0B54E00C90F884669
S11336700D00610A440F0C43C70019035800DB0F07
S11336809B464B0A510F0B43760D400D1900D20097
S1133690D84500D1AEE0351A002D00DCF6E0002854
S11336A00FD1134300D1DBE06B1E002B00D037E1B8
S11336B0BA1A9742BF41641A7F42E41B01261700DD
S11336C024E0C64B9E424DD080231B041943382D61
S11336D000DD07E11F2D00DD38E12020431B9A4661
S11336E00B0050468340994613004846EB4018436C
S11336F0030050468240501E8241E9401A43BA1AE0
S1133700611A9742A441170064420C1B230262D53C
S11337106402650A002D00D1DFE0280001F026FDD7
S11337200300083B1F2B00DDD2E020223C00D21A0C
S11337309D40D4409F4025439E4200DDC4E09E1B33
S1133740731C1F2B00DDF1E0202238002900D21A5F
S1133750D840914097402C000143781E8741DC40BB
S113376000260F437B0709D00F233B40042B05D0D1
S11337703B1DBB42BF417F42E4191F0023022CD5ED
S1133780964B01369E4200D19AE04546944BFF0881
S11337901C406007760564020743240B760D002164
S11337A02403230B0C0D8F4A24051C4314403305BA
S11337B023435B00ED075B082B43380019003CBC36
S11337C090469946A246AB46F8BD6446044300D1F0
S11337D011E2040067467B07C6D145466007FF082F
S11337E00743E4087D4B9E4230D024037605240B26
S11337F0760DD4E7331A9A46002B78DD002831D0B1
S113380076488642AED08020000401435346382BCC
S113381000DCE9E00A43511E8A410021D219BA4270
S1133820BF4109197C4217000C192302D3D56B4BF5
S113383001369E4200D13AE10120694B1C407B08CD
S113384007401F43E007074364088BE723003B431B
S113385000D1CBE18022120314432403240B9EE7FE
S11338602E007FE70800104300D1B4E0581E002862
S113387000D0DEE0BA18BA429B4164185B42E418F7
S1133880170001262302A6D50226D5E7002D6ED106
S1133890701C4005400D012800DCF9E0B81A84468C
S11338A087428041E51A40422D1A280200D489E05B
S11338B0D71BBA4292411C1B5242A51AD84629E78B
S11338C04546002400276AE7454CF61A2C4049E790
S11338D03D002838854000272EE7380001F046FCDB
S11338E020301DE70A43511E8A41002107E7002BBF
S11338F000D0F3E0701C43055B0D012B00DCADE050
S1133900364B984200D1D1E0BA18BA42BF4164188C
S11339107F42E419E707520817436408060021E7C9
S11339202E48854200D193E01D00D0E629001F3EB9
S1133930F140202B00D18DE04022D31A9D402F432B
S11339407D1EAF4100240F43002644E72B000800EE
S1133950203BD8400300202D00D17DE04020451BB2
S1133960A9400A43511E8A4100211A43C7E6002E8A
S113397050D01A4EB04257D080266B429946360436
S113398034434B46382B00DDD6E01F2B00DD35E1F8
S11339902026F51A2600AE40B2463E00DE40AC4674
S11339A0350056462E436546AF407D1EAF41DC4090
S11339B03743D71BBA4292410C1B5242A41A060049
S11339C0D846A3E6644667462C4300D0A2E6002509
S11339D00026002706E71E00C4E6C046FF070000D5
S11339E0FFFF7FFFFFFF0F801F2B63DC2020C31A24
S11339F0080098409C46834653461000D840030074
S1133A005846184363469A40531E9A41534602430C
S1133A10D94003E726003E4306D0EB439946002BEA
S1133A20C7D0944EB042ACD10C0017000600D84663
S1133A3098E6904B9A450BD08246E7E6002800D0E2
S1133A409EE01800104300D1E9E01C001700D8469E
S1133A50884E87E6002572E7002182E723003B4376
S1133A60002E00D0ABE0002B00D1E7E00B001343A5
S1133A7000D177E6BA18BA42BF4164187F42E4190C
S1133A80230200D4F2E07C4B17001C40060069E6D8
S1133A9020003843002ED1D100285BD11C001443F0
S1133AA000D1A8E01C001700D8465BE606000024FD
S1133AB0002797E650460B002038C34099465346EA
S1133AC0202B00D195E0402350461B1A99400A430D
S1133AD0511E8A414B4600211A439FE6002E30D1E5
S1133AE026003E4367D0DB439A46002B1CD0614E30
S1133AF0B04260D05346382B00DD96E01F2B00DD2A
S1133B009FE02026F31A26009E409C46B346534667
S1133B103E00DE4033005E461E4363469F407B1EEC
S1133B209F415346DC403743BF1897429241641883
S1133B305242A418060078E627437C1EA7410024BD
S1133B4037E74C4EB04236D080265B4236049A4664
S1133B503443CFE71800104300D103E6B81A844673
S1133B606745AD41E01A6D42401B050200D42CE6C6
S1133B70D71BBA4292411C1B5242A41AD846F1E503
S1133B801800104300D163E7F80867070743802053
S1133B90E4080003044208D0DD08054205D1D20838
S1133BA0590711430F002C00D8467B0FE4001C4337
S1133BB0FF00304ED6E50C0017000600D2E5002BBE
S1133BC038D00B00134300D142E7F80867070743D6
S1133BD08020E40800030442E7D0CB080342E4D188
S1133BE0D208490711430F001C00DEE70027002418
S1133BF0D5E500216BE700250027F3E54E462500B7
S1133C00203EF5404B462E00202B2DD04025ED1AAA
S1133C10AC4027437C1EA74100243743C9E68024D7
S1133C2000252403134E0027DCE527437C1EA7410F
S1133C30002479E70C0017000E4E93E50C001700E2
S1133C4090E556462300203EF34099465346202BE8
S1133C500ED0402356469B1B9C4027437C1EA74105
S1133C604B4600241F435FE70024D2E71700B2E568
S1133C700024F2E7FF070000FFFF7FFFF0B557467F
S1133C804546DE464E46E0B54C000E0387B08346FB
S1133C9092461D008046360B640DCF0F002C4FD08A
S1133CA06F4B9C4235D08023420F1B04F600134314
S1133CB033439946C30098466A4B00269C4600232A
S1133CC0644403932B031B0B9B466B00ED0F504680
S1133CD05B0D01955ED0624A934253D05A46D1009F
S1133CE08022400F120402430A4393465246D100F5
S1133CF05C4A94460022634438006840844602903B
S1133D00E41A16430F2E00D9B4E0574BB6009B5962
S1133D109F460300334399466CD1002398460233EF
S1133D2008260393CEE7CB464146039A0197022A1D
S1133D3065D1019B4A4C9C460023002298466BE0C7
S1133D400300334399464ED0002E00D1BCE130002D
S1133D5001F00CFA03000B3B1C2B00DDACE11D222F
S1133D60D31A5A460100DA4008398E40130033430F
S1133D7099465B468B40984600233C4C0026241A07
S1133D8003939FE751465A46114329D10022934693
S1133D900232B1E7594601431ED05B46002B00D1E5
S1133DA09EE1584601F0E2F903000B3B1C2B00DDB9
S1133DB08FE102005946083A91408B461D21CB1AE7
S1133DC05146D9400B0059460B4351469B469140FE
S1133DD0264B00221B1A8FE7002301229B468BE708
S1133DE05146032288E70023984601330426002421
S1133DF0039367E70323B14603930C2662E7032A80
S1133E0000D15CE2019B012A00D0E4E113409C460E
S1133E10002300240022984600211203130B0A0DEC
S1133E2012051A432305124C4046224013436246AE
S1133E305B00D2075B081343190007B03CBC9046F3
S1133E409946A246AB46F0BD002380229C4612034D
S1133E509846034CE0E70023014C00229846DBE738
S1133E60FF07000001FCFFFF605200000DFCFFFF94
S1133E70FFFF0F80D94500D939E100D134E1002397
S1133E8046464D469A46013C5B460A0E1B021A43BF
S1133E900B02170C039313041B0C390028009046E3
S1133EA00193FFF711FB0200019B83465A4328004C
S1133EB039009146FFF78EFB350C09040D43A945E3
S1133EC00DD95B464544013BA84500D93AE1A945D3
S1133ED000D837E102235B429C464544E3444B4609
S1133EE0EB1A390018000493FFF7EEFA019B050062
S1133EF04343390004989946FFF76CFB33040904E3
S1133F001B0C0B43994509D943446A1E984500D9B3
S1133F101AE1994500D817E1023D43444A469B1AE9
S1133F205A4612042A4303999346100C0A0C9146EC
S1133F3009045A46090C4E460D001204120C45435E
S1133F40059151437243704352190E0CB2189542B5
S1133F5003D980256D02AC466044150C0904120493
S1133F60090C28185218834200D2CEE000D1C8E0D0
S1133F701D1A53469E1AB24592415242AB1A9A46B2
S1133F80984500D117E139001800FFF79DFA019B0D
S1133F9005004343390050460493FFF71BFB049884
S1133FA00B04310C1943884209D941446B1E8845DE
S1133FB000D907E1884200D804E1023D4144049B52
S1133FC0CB1A180039000493FFF77EFA019B82464E
S1133FD04343390004980193FFF7FCFA01980B045A
S1133FE03104090C194388420DD953464144013B1D
S1133FF0884500D9E8E0884200D8E5E002235B4226
S11340009C464144E244019B2D04CE1A5146294367
S1134010059D4F462A000B04080C1B0C5A434543CC
S11340207B4378435B19170CFB189D4203D9802509
S11340306D02AC4660441D0C12041B04120C2818BB
S11340409B18864200D293E000D18EE001231943ED
S1134050A04BE318002B00DC99E04A0700D09EE057
S11340605A46D20106D55A469B4B1A4080239346A2
S1134070DB00E318994A934268DD0123029A984CC5
S11340801A400023944698460022C5E680224B46F7
S1134090120313420AD05B46134206D11A43120399
S11340A0120BAC4688468E4CB6E64B461A431203B6
S11340B0120BBC468A4CAFE603005A46283B9A4092
S11340C000239146984657E6584601F04FF82030B1
S11340D040E603005246283B9A400021934677E687
S11340E001F044F820305FE6884500D2C7E64B462D
S11340F0DE075D0843465B081E434346DB079A46DA
S1134100C2E60025924500D333E7039E5946B446E0
S1134110E244B245AD416D424544EB18013998453E
S113412007D2984200D97FE000D1BCE01D1A8B462B
S11341301FE79845FAD1039D5545F2D943468B466E
S11341401D1A16E79B46CAE61500E7E65A46C90853
S113415052070A435B0590465C0D5A4601230299B7
S113416052021940120B8C4656E6002B00D16FE721
S113417046444A1EB04529D91100864200D065E75D
S1134180039A934200D061E762E70121494201208A
S1134190C21A382A21DD029B03409C4638E60F22CE
S11341A00A40042A00D15BE70A00111D91429241A2
S11341B05242934454E7474BE318002BE5DD0122B8
S11341C05242F2E71D00FAE69A461CE7B04239D89B
S11341D06ED011003AE702933AE71F2A3CDC202311
S11341E09B1A0C005846994098404B1E99415B46D7
S11341F0D440D340204308431A00430709D00F2377
S11342000340042B05D00100081D88429B415B42FA
S1134210D21813023AD50123029A01241A4000232A
S1134220944698460022F7E5022149428C46039DB4
S1134230E344AC46E244AA45AD416D424544ED1821
S11342402D1A96E68A1E03994D008D4289414942F2
S11342504144761803958FE71F204042C31A5846FD
S1134260D8400300202A28D040205D46821A954079
S113427029434A1E91411943072300220B4009D0C8
S11342800F2300220B400800042BBDD1010053076B
S11342905202120BC90819430123884602990024CB
S11342A019408C46B8E55245BED88B46002560E6D9
S11342B0039D9D42C6D3110062E70025D8E7802202
S11342C05B4612031A43019B1203120B9C46884659
S11342D0034CA1E5FF030000FFFFFFFEFE07000003
S11342E0FF070000F0B54F464646D6465C00C0B511
S11342F01F03DB0F9A46174B0E034D00844680467E
S1134300360B6D0DC90F91463F0B640D01209D4284
S113431008D09C4201D0A5420BD01CBC90469946C3
S1134320A246F0BD63463343F7D1AC42F5D13A43DC
S1134330F3D10120BE42F0D1C845EED1514507D09A
S1134340002DEAD163461E433000461EB041E4E727
S11343500020E2E7FF070000F0B54546DE46574679
S11343604E46E0B51F033D0B2C4F0E034C00AB46ED
S11343705D008446360B640DC90F90466D0DDB0F4E
S1134380BC422AD0254FBD422DD0002C0FD1304342
S11343900700814678427841C0B2002D17D15F46AC
S11343A03A4314D14B460020002B0AD006E0002DDE
S11343B002D15846024301D0994218D04842012103
S11343C008433CBC90469946A246AB46F0BD002843
S11343D0F2D00120013B1843F3E737000743D1D063
S11343E002204042EDE75F461743CED0F8E7AC42E7
S11343F0E4DC03DA481E01210843E2E75E45DDD828
S113440006D000205E45DCD20123481E1843D8E7BD
S1134410C445D3D80020C445F6D3D2E7FF07000033
S1134420F0B54E464546DE4657465C00E0B51F03F0
S1134430DB0F99462A4B0E034D00C90F8446360BF9
S11344406D0D8B4690463F0B640D9D4220D0244B4E
S11344509C4222D0002D12D1304343424341DBB26F
S1134460002C1FD0002B0CD04B460120013B0343F2
S113447018003CBC90469946A246AB46F0BD002CC1
S113448016D0CB4517D05B46594201230B43EFE7C7
S1134490310002230143EBD1D9E739000223114350
S11344A0E6D1D7E73A43DDD100230028E0D0EAE79C
S11344B03A43E6D1E7E7A542E5DC05DBBE42E2D8B4
S11344C007D00023BE42D3D25946012301390B43FE
S11344D0CEE7C445D7D80023C445F5D3C8E7C046C2
S11344E0FF070000F0B557464546DE464E46E0B5A8
S11344F00C0398464E00230B87B0070092469B4658
S1134500760DCD0F002E6BD06D4B9E4235D080249E
S11345105B46420F2404DB0014431C43C30099464A
S1134520684BA3469C4600230027664402934346F7
S11345301C035A00DB0F5046240B520D984600D141
S113454076E05F4B9A426DD08023410F1B040B43EE
S11345505C49E4008C461C43C3000020624441468D
S1134560B6186940721C0191944607430F2F00D975
S1134570B0E0554ABF00D25997465B46034399467B
S113458000D087E000239B46023308270293CEE73E
S113459042460192022867D0032800D10EE2012886
S11345A000D062E1002300240022994601990140D1
S11345B0CDB2002112030B0D120B1B051343434A0A
S11345C0240513401C436400ED0764082C4348464B
S11345D0210007B03CBC90469946A246AB46F0BDCC
S11345E0034399464FD05B46002B00D189E15846DE
S11345F000F0BCFD03000B3B1C2B00DD7AE11D2207
S1134600D31A3A0001005C46DA4008398C401300A2
S11346108F4023439B46B94600232D4E0027361A6C
S1134620029384E7534623432AD10024022096E7C9
S11346305346234320D0002C00D157E1200000F042
S113464095FD03000B3B1C2B00DD49E11D21CB1A1A
S113465051460200D9405346083A944093400C43D3
S11346601B4A121A00207AE70125019B144C1D40B5
S11346700023002299469CE70024002201206EE7D3
S1134680534603206BE700239B460133042700268F
S113469002934CE7032381460C27029347E78022C9
S11346A00023002512039946054C82E75C464B46DD
S11346B002986FE75C464B46019502986AE7C0464C
S11346C0FF07000001FCFFFFA0520000FFFF0F8066
S11346D00DFCFFFF4A464946170C1A0C1B041B0C21
S11346E008041900000C41431500884619007D4355
S11346F07943039589462900150045434D440295A5
S113470045462D0CAA46029D5544A94506D98A461C
S1134710802149028946CA4451460391290C0491D7
S1134720414609042D04090C88462900250C24045B
S11347304144240C059121004143884621007943DA
S11347408A466843414650448146080C48446F43B6
S1134750824503D98021490289464F44010C894688
S113476039004944029141460F0404993F0C88469C
S11347700004C01980444146049159460F0C0904B1
S1134780090C884659438A463900514389464146B3
S11347904A435146090C8B467B43D2185A449342F0
S11347A003D980235B029B46D94451460904090C72
S11347B08A46414661437C43130C12044B445244E1
S11347C0A1468A463C0041466C434D4351464D4404
S11347D00F0C7D19A94503D9802149028846444418
S11347E0049F0399B84641448B4683458041414226
S11347F08846514608042F04000C3F185846029975
S113480010188946904292414F44BA465242994602
S11348109346C244D144CB448F42BF41C2458941EF
S113482099459B41934592417F4249422D0C524206
S11348300F435B4213437F19FF185B463C19DB0DA2
S1134840059A64021C43430213435D1EAB415A465E
S1134850C00D034352021343E20156D501205A0806
S113486003401343E207134364085A486044002892
S11348704DDD5A0709D00F221A40042A05D01A1D0B
S11348809A429B415B42E4181300E20104D5802064
S1134890514AC00014406044504A904200DDE3E6AF
S11348A00125DB0862071A436402019B9146220B2F
S11348B04405640D1D407CE68022594612031142D2
S11348C008D0144206D122431203120B45469946DE
S11348D0434C6EE65B461A431203120B404C68E6E7
S11348E003005446283B9C400023B9E600F03EFCFC
S11348F02030A6E60300283B9F400023BB46994690
S11349008AE600F033FC203074E6B446ADE70125B6
S11349102A1A382A06DD019B00241D4000230022A8
S1134920994646E61F2A21DC20252000AD1A1E00E8
S1134930AB40A840D6405D1EAB4130431843D44041
S1134940430709D00F230340042B05D00300181D8F
S113495098429B415B42E418230221D50125019B27
S113496001241D4000230022994622E61F25210030
S11349706D42281AC1400800202A1DD05F35AA1AAA
S1134980944023435C1EA341072503431D4000229A
S1134990002D09D00F2200241A401800042AD6D171
S11349A0030065076402220BDB082B4301259946AB
S11349B0019B00241D40FCE50024E2E78022012540
S11349C01203224301991203120B0D409946044C21
S11349D0EFE5C046FF030000FFFFFFFEFE070000F7
S11349E0FF070000F0B54646D6464F460C03C0B557
S11349F0CD0F4E00610A440F0C43C1005800400D16
S1134A0084468A460F001903500F490A0143C648D9
S1134A10760DA846DB0FD200844500D1D8E00120F2
S1134A204340AB4200D1A6E06046351A002D00DCBD
S1134A3005E1002810D10B00134300D1D7E06B1E11
S1134A40002B00D04BE153469F1ABA458041641AAB
S1134A504042241A01261EE0B34B9E4248D08023D4
S1134A601B041943382D00DD19E11F2D00DD4CE135
S1134A7020230F005B1B10009A409F40E840531E08
S1134A809A41E940074317435346DF1B611ABA456D
S1134A90A44164420C1B230200D4C5E06402650AED
S1134AA0002D00D1F6E0280000F060FB0300083B75
S1134AB01F2B00DDE9E020223C00D21A9D40D440A7
S1134AC09F4025439E4200DDDBE09E1B731C1F2B91
S1134AD000DD0AE120223800D21A290097402C0078
S1134AE09140D8407A1E9741DC40002601430F4391
S1134AF07B0709D00F233B40042B05D03B1DBB4251
S1134B00BF417F42E4191F00230225D5864B01369D
S1134B109E4200D1AFE0854B01251C40434662070D
S1134B20FF08640276051743240B760D1D4000210F
S1134B302403230B0C0D7E4A24051C431440330527
S1134B4023435B00ED075B082B43380019001CBCB2
S1134B5090469946A246F0BD012543466207FF08E8
S1134B601743E4081D40704B9E4236D0240376055B
S1134B70240B760DDBE76346F31A002B00DC94E08C
S1134B806046002835D068488642B1D080273F046B
S1134B903943382B00DCFDE00A43170000217A1E5C
S1134BA09741574457458041091944420C1923023F
S1134BB03AD55D4B01369E4200D14BE101225B4B5D
S1134BC01C407B0817401F43E207174364088FE724
S1134BD00800104300D024E721E723003B4300D121
S1134BE0B9E18022120314432403240B9FE72E000F
S1134BF07EE70800104300D1CAE0581E844600280E
S1134C0000D0E7E0524452458041641840422418E1
S1134C1017000126230207D50226CFE764462C435A
S1134C2000D1B3E12C0067467B0700D062E763073D
S1134C30FF081F4301254346E4081D4093E7002D68
S1134C4078D1751C6D056D0D012D00DCF2E0504628
S1134C50801A8245BF41651A7F42ED1B84462802B3
S1134C6000D48CE05046171ABA4292410C1B5542AC
S1134C70651B984614E70125434600241D40002780
S1134C8055E72A4CF61A2C4032E73D002838854077
S1134C90002717E7380000F069FA203006E70A43D6
S1134CA0170000217A1E9741EEE6002B00D0E5E0C4
S1134CB0731C9C465B055B0D012B00DC9FE01A4BCB
S1134CC09C4500D1C5E0524452458041641840429D
S1134CD02418E707520817436408664608E7124891
S1134CE0854200D185E01D00BCE629001F3EF1404D
S1134CF0202B00D17FE04022D31A9D402F437D1EFC
S1134D00AF4100240F4300268EE72B000F00203B09
S1134D10DF40202D71D040235D1BA9400A43511E62
S1134D208A4100211743AFE6FF070000FFFF7FFF22
S1134D30FFFF0F80002E3ED0B34EB44545D08026F1
S1134D4036046D423443382D00DDA8E01F2D00DD0C
S1134D501FE1202627005046761BB740E840074352
S1134D605046B040461EB041EC403843171ABA4290
S1134D7092410C1B5242A41A664698468BE664463E
S1134D8067462C4300D08BE6002500260027EAE680
S1134D901E00ADE61F2B60DC2027F81A0F008446A6
S1134DA087401000D840074360468240501E82412D
S1134DB0D9401743F5E626005046064305D0ED4397
S1134DC0002DD3D0904EB445BDD10C0017006646DB
S1134DD098468DE68C4883420BD06346D9E6002D75
S1134DE000D096E00800104300D1E2E00C00170068
S1134DF09846854E7CE6002580E700218EE7230057
S1134E0050460343002E00D0A8E0002B00D1DEE082
S1134E100B00134300D16BE65244524580416418A1
S1134E20404224181700230200D4FDE6774B66465F
S1134E301C405DE6250050460543002ECFD1002DD1
S1134E404FD10C00144300D1A0E00C001700984689
S1134E504EE666460024002785E61F000800203F32
S1134E60F8400700202B00D18EE04020C31A99405F
S1134E700A43511E8A410021174392E6002E14D1A1
S1134E8026005046064362D0DB43002B5CD18718D2
S1134E909742924164185242A418664687E65046E7
S1134EA02043441EA041002460E7574EB4454ED031
S1134EB0802636045B423443382B00DD7FE01F2B11
S1134EC000DD8BE0202627005046F61AB740D84074
S1134ED007435046B040461EB0410743DC40BF186C
S1134EE0D6E70D00154300D102E65046801A8245EC
S1134EF0BF41651A7F42ED1B8446280200D48DE62B
S1134F005046171ABA4292410C1B5242A41A9846B0
S1134F10EEE50D00154300D16BE750466707C00866
S1134F2007438020E4080003044207D0CD0805426B
S1134F3004D12C009846D70849070F437B0FE4009F
S1134F401C43FF00304ED3E52F4EB445B4D10C00C2
S1134F5017006646CCE500270024E8E5002B39D08D
S1134F600B00134300D144E7C008670707438020C0
S1134F70E40800030442E1D0CB080342DED1D708A1
S1134F8049070F431C00D9E7002171E700250027DA
S1134F90E9E52E002700203EF740202D2FD04026A3
S1134FA0751BAC4050462043441EA04100243843A6
S1134FB0DCE6802400252403134E0027D3E5504665
S1134FC020430700781E87410024BF1860E70C00C7
S1134FD017008DE50C0017000B4E89E51E00270015
S1134FE0203EF740202B0CD04026F31A9C4050461C
S1134FF02043441EA04107430024BF1848E700246F
S1135000D0E70024F3E7C046FF070000FFFF7FFF5F
S113501030B5134D0A034B00120B5B0DC90F00246E
S1135020AB4210DD0F4CA3420FDC80240E4D640311
S11350302243ED1A1F2D0BDD0C48C31ADA405442EB
S1135040002900D11400200030BD094BCC18FAE728
S1135050084CE840A44663449A400243EFE7C04644
S1135060FE0300001D0400003304000013040000CC
S1135070FFFFFF7FEDFBFFFF70B5002830D0C317A3
S1135080C4185C40C50F200000F070F8174B184A94
S11350901B1AD21A1F2A18DD164AD21A944000226B
S11350A024035B05240B5B0D0021100024030A0D6F
S11350B0240B12052243104C1B05224013435B00B2
S11350C0ED075B082B43190070BD210091400A00D5
S11350D00B21081AC4405B052403240B5B0DE3E792
S11350E00025002300240022DEE7C0461E04000041
S11350F03304000013040000FFFF0F8010B5041EEA
S113510028D000F033F8154B154A1B1AD21A1F2A5F
S113511015DD144AD21A9440002224035B05240BA3
S11351205B0D0021100024030A0D240B12052243F9
S11351300D4C1B05224013435B00590810BD210090
S113514091400A000B21081AC4405B052403240B78
S11351505B0DE6E7002300240022E2E71E040000C2
S11351603304000013040000FFFF0F801C210123FF
S11351701B04984201D3000C10391B0A984201D336
S1135180000A08391B09984201D30009043902A214
S1135190105C40187047C04604030202010101017B
S11351A0000000000000000070B500260C4D0D4CFE
S11351B0641BA410A64209D1002600F091F80A4D00
S11351C00A4C641BA410A64205D170BDB300EB5871
S11351D098470136EEE7B300EB5898470136F2E7FB
S11351E0EC520000EC520000EC520000F0520000BF
S11351F003008218934200D1704719700133F9E714
S113520000080042000C004200100042001400425A
S113521000180042001C00429A28000014290000D3
S113522014290000B8280000B2280000BE2800009D
S1135230A0280000C4280000FA280000F02900007B
S1135240402A0000402A00003C2A0000E229000015
S1135250022A0000D2290000142A0000262A000095
S1135260743E0000563E0000103E00002E3D00003B
S1135270103E0000483E0000103E00002E3D00009D
S1135280563E0000563E0000483E00002E3D000001
S1135290263D0000263D0000263D00008C40000015
S11352A0D446000094450000944500009045000059
S11352B0AC460000AC4600009E460000904500004D
S11352C0AC4600009E460000AC460000904500003D
S11352D0B4460000B4460000B4460000B8480000DC
S11352E0F8B5C046F8BC08BC9E467047DD00000017
S11352F0F8B5C046F8BC08BC9E467047B50000002F
S1135300401F000008000000010000000F270000FB
S903320DBD
