S01500006E726632346C30312D6E6F64652E73726563C3
S1130000E8210020D93A0000D13B0000D13B000098
S113001000000000000000000000000000000000DC
S1130020000000000000000000000000D13B0000C0
S11300300000000000000000D13B0000D13B0000A4
S1130040D13B0000D13B0000D13B0000D13B00007C
S11300508D020000D13B0000D13B0000D13B0000E9
S1130060D13B0000D13B0000D13B0000D13B00005C
S1130070D13B0000D13B0000D13B0000D13B00004C
S1130080D13B0000D13B0000D13B0000D13B00003C
S1130090D13B00000000000000000000D13B000044
S11300A0D13B0000D13B0000D13B0000D13B00001C
S11300B00000000010B5064C2378002B07D1054B37
S11300C0002B02D0044800E000BF0123237010BDC0
S11300D078000020000000000C830000084B10B5DD
S11300E0002B03D00749084800E000BF0748036815
S11300F0002B00D110BD064B002BFBD09847F9E72D
S1130100000000007C0000200C8300000C83000031
S11301100000000080B584B000AF0200FB1D1A701F
S11301200F23FB18FA1D127852091A700F23FB18BB
S11301301B78002B0CD1094BBB600F23FB181B78D9
S11301409B0010229446BC446344083B1B6800E0B7
S113015000231800BD4604B080BDC046001800400E
S113016080B584B000AF0200FB1D1A70FB1D1B7824
S113017018000B4B98470300FB60FB1D1B781F22E4
S1130180134001229A401300BB60FB681B69BA68E4
S113019013405A1E9341DBB21800BD4604B080BD23
S11301A01501000080B584B000AF0200FB1D1A7079
S11301B0FB1D1B781800094B98470300FB60FB1DCF
S11301C01B781F22134001229A401300BB60FB6876
S11301D0BA681A61C046BD4604B080BD150100006E
S11301E080B582B000AF786008001100FB1C021CCF
S11301F01A70BB1C0A1C1A70BB1C1B78002B01D084
S1130200172319E0FB1C1A780D4B9200D358002BCE
S113021007D1FB1C1A780A4B92007968D15000234D
S11302200AE0FB1C1A78064B9200D2587B689A426B
S113023001D1002300E01D231800BD4602B080BD9B
S1130240C800002080B584B000AF0200FB1D1A7006
S1130250BB1D0A1C1A70BB1D1B78002B0ED1FB1D85
S11302601B781800084B98470300FB60FB1D1B78A4
S113027001229A40FB68DA60002300E0172318008B
S1130280BD4604B080BDC0461501000080B500AF76
S1130290154B00221A7020E0134B1B781800134BE7
S11302A09847031E13D0104B1B781800104B984727
S11302B00D4B1B781A000F4B9200D358002B06D01D
S11302C0094B1B781A000B4B9200D3589847064BE6
S11302D01B780133DAB2044B1A70034B1B780F2BD3
S11302E0DAD9C046BD4680BDC400002061010000CB
S11302F0A5010000C800002080B582B000AF78607E
S11303007B6800221A70C046BD4602B080BD000062
S113031080B582B000AF02003960FB1D1A70FB1D6E
S11303201B78012B0AD0022B0FD0002B14D10E4BBB
S11303300D4A91693A680A439A610FE00A4B0A4AE6
S1130340D1693A680A43DA6108E0074B064A116A40
S11303503A680A431A6201E0172300E000231800F8
S1130360BD4602B080BDC0460004004080B582B0E6
S113037000AF78607B6880221A707B6800225A7014
S11303807B6801229A707B680022DA70C046BD4601
S113039002B080BD80B582B000AF0200FB1D1A70B0
S11303A0064BFA1D127811001F220A4001219140C8
S11303B00A001A60C046BD4602B080BD00E100E0FC
S11303C080B584B000AF0200FB1D1A700F23FB1828
S11303D0FA1D127852091A700F23FB181B78002B90
S11303E00CD1094BBB600F23FB181B789B00102218
S11303F09446BC446344083B1B6800E00023180097
S1130400BD4604B080BDC0460018004080B582B02F
S113041000AF0F4B3B6000237B6011E07B689B00C7
S113042008229446BC446344083B1B685B78DBB2F7
S11304305BB2002B01DA012306E07B6801337B60A9
S11304407B68002BEAD000231800BD4602B080BDB3
S11304500018004080B584B000AF2D4B7B60402174
S113046000202C4B98473B0018002B4B98473B002F
S113047000221A703B0019000520284B98470520DC
S1130480274B98470023FB6018E0FB689B00102271
S11304909446BC4463440C3B1A68FB689B001021DF
S11304A08C46BC4463440C3B1B681B78DBB20121C3
S11304B00B43DBB21370FB680133FB60FB68002B5A
S11304C0E3D0C046174B9847031EFBD10B23FB1800
S11304D000221A700DE00B23FB181A78124B9200BD
S11304E00021D1500B23FB181A780B23FB1801327F
S11304F01A700B23FB181B780F2BECD904200B4B21
S113050098470B4B9847C046BD4604B080BDC046D3
S11305100018004011030000F902000065370000D4
S1130520A93700000D040000C80000209503000056
S11305303505000080B582B000AF154B3B60002349
S11305407B6018E07B689B0008229446BC446344AB
S1130550083B1A687B689B0008218C46BC446344B2
S1130560083B1B681B78DBB202210B43DBB2137020
S11305707B6801337B607B68002BE3D0C046054B6E
S11305809847031EFBD1C046BD4602B080BDC0469D
S1130590001800400D04000080B582B000AF786000
S11305A07B6800221A607B6800225A607B68012203
S11305B01A727B6801225A727B6800229A727B68E5
S11305C00222DA72C046BD4602B080BD80B586B054
S11305D000AF02003960FB1D1A700823FB181800D5
S11305E0364B98473B685B68DAB20823FB181A70ED
S11305F00823FB1800225A703B681A7A0823FB1858
S11306009A703B681B68DBB20822BA181100180004
S11306102B4B9847FB1D1B7818002A4B9847030067
S11306203B61FB1D1B78072213409B00FB603B686A
S1130630DB7A7B613B689B7A002B03D07B690822C1
S113064013437B61FB1D1B78DB08DBB21800FB1D29
S11306501B78DB08DBB21A003B6906329200D358E0
S11306600F21FA6891400A00D2431A407969FB6865
S113067099400B001A4311003B69821D9200D1502E
S11306803B685B7A002B0AD03B695A69FB1D1B78D7
S1130690012199400B001A433B695A610AE03B6906
S11306A05B69FA1D1278012191400A00D2431A4075
S11306B03B695A61C046BD4606B080BD6D0300006B
S11306C0513A0000C103000080B584B000AF0200BD
S11306D0FB1D1A700F23FB18FA1D1278D2091A7029
S11306E00E23FB18FA1D127852091A700D4BBB60C9
S11306F00F23FB181B78002B0FD10F23FB181B783B
S11307009B0010229446BC446344083B1A680E23A1
S1130710FB181B78DB01D31800E000231800BD464A
S113072004B080BD0044004180B582B000AF020037
S1130730FB1D1A70FB1D1B781800034B9847030020
S11307401800BD4602B080BDC906000080B582B065
S113075000AF78607B6800221A707B6801225A70AF
S11307607B6800229A70C046BD4602B080BD00007E
S113077080B584B000AF0200FB1D1A70BB1D0A1CBB
S11307801A70FB1D1B7818000D4B98470300FB6083
S1130790FB1D1B781F22134001229A401300BB60EB
S11307A0BB1D1B78002B03D0FB68BA689A6102E07A
S11307B0FB68BA685A61C046BD4604B080BDC046F5
S11307C02907000080B500AF044B01221A70BFF363
S11307D05F8F62B6C046BD4680BDC046080000209B
S11307E080B582B000AF154B9847154B98473B1D19
S11307F01800144B98473B1D01221A703B1D02221E
S11308005A703B1D19000F200F4B984700210F20F1
S11308100E4B98470A200E4B984701210F200B4B93
S113082098470A200A4B984700210F20074B984706
S1130830084B9847C046BD4602B080BD5908000029
S1130840A90800004D070000F12E00007107000008
S11308504D0C0000C507000080B584B000AF3B1DFF
S113086018000F4B98473B1D0E221A603B1DE022D7
S113087012035A603B1D02221A723B1D0122DA72D6
S11308803B1D00229A723B1D01225A723B1D190026
S11308900E20044B9847C046BD4604B080BDC046F8
S11308A099050000CD05000080B500AF064B00227D
S11308B00E211800054B984700210E20044B984741
S11308C0C046BD4680BDC046D5080000E101000019
S11308D04502000080B500AF0A4B18000A4B984748
S11308E001210F20094B98470A20094B9847002102
S11308F00F20064B9847074B01221A70C046BD468D
S113090080BDC0463C810000790B000071070000E7
S11309104D0C00000801002080B582B000AF020039
S1130920FB1D1A70064BFA1D127811001F220A4093
S1130930012191400A001A60C046BD4602B080BD44
S113094000E100E0B0B582B000AF02003960FB1DE9
S11309501A70FB1D1B787F2B32D92F4CFB1D1B7883
S11309601A000F231340083B99082B4AFB1D1B78E0
S113097018000F230340083B9B0806339B00D31841
S113098004331B68FA1D1278100003220240D200BF
S1130990FF2090400200D2431A403B689B01FF2095
S11309A01840FB1D1B781D0003232B40DB009840DF
S11309B003001A438B1D9B00E31804331A6027E0DD
S11309C0164CFB1D1B785BB29B081449FA1D127868
S11309D052B29208C03292005258F91D09780800A8
S11309E003210140C900FF2088400100C943114090
S11309F03A689201FF201040FA1D12781500032274
S1130A002A40D200904002000A43C0339B001A518E
S1130A10C046BD4602B0B0BD00ED00E000E100E01C
S1130A2080B500AF134A136801210B431360C0461D
S1130A30104B1B68DB07DB0FDBB2002BF8D10D4B2F
S1130A40DB69DB07DB0FDBB2002BF1D10A4B0A4A6F
S1130A50126A80210A431A62084B094A5A80C04626
S1130A60064B5B78DBB25BB2002BF9DBC046BD46BC
S1130A7080BDC046001C004200040040000C004041
S1130A801940000080B582B000AF1A4A88230421BF
S1130A90D150184A98230421D150164AB123D35C6B
S1130AA0DBB21A00302313407B60124A7B68DBB24E
S1130AB003210B43D9B2B123D1540E4AC2230121DD
S1130AC0D1540C4AB223D35CDBB21A003023134056
S1130AD07B60084A7B68DBB203210B43D9B2B223A3
S1130AE0D154044AC5230321D154C046BD4602B0A3
S1130AF080BDC0460044004180B500AF174B984705
S1130B00174B9847174B184A1A60164B174A9A8185
S1130B10144B802252025A60C046124BDB695B07B9
S1130B20DB0FDBB2002BF8D10E4B04229A750E209A
S1130B300F4B984701210E200E4B9847094A136822
S1130B4002210B431360C046064BDB699B07DB0F96
S1130B50DBB2002BF8D1C046BD4680BD210A00009F
S1130B60850A0000001C00428400204003C5FFFFEA
S1130B70190900004509000080B584B000AF786011
S1130B800023FB600FE00D4B1B7EDB07DB0FDBB2AA
S1130B90012B08D10949FB685A1CFA607A68D318FA
S1130BA01B789BB20B857A68FB68D3181B78002BE3
S1130BB0E9D100231800BD4604B080BD001C0042EA
S1130BC080B582B000AF78607B68002B0CD0084BF6
S1130BD07A685A60064B00229A60C046044B1A6831
S1130BE080235B021340F9D0C046BD4602B080BDED
S1130BF010E000E080B500AF00200F4B98470200E2
S1130C000E4B1A600D4B18680D4BFA229100984751
S1130C1003001A00094B1A60084B1868084BFA22A3
S1130C209100984703001A00064B1A60064B0522F0
S1130C301A60C046BD4680BD8D360000000000200D
S1130C40115800000400002010E000E080B582B0DC
S1130C5000AF786004E0074B1B681800064B984708
S1130C607B685A1E7A60002BF5D1C046BD4602B09F
S1130C7080BDC04600000020C10B000080B582B0DA
S1130C8000AF78607B6800221A70C046BD4602B08F
S1130C9080BD80B586B000AFF860B9607A60162375
S1130CA0FB1800221A80BB683B61BB685A08FB68CA
S1130CB09A4201D2402326E0BB685B083B610AE00C
S1130CC03A69FB68D31A3B611623FB181A8816236A
S1130CD0FB1801321A803A69FB689A42F0D2162353
S1130CE0FB181622BA181288013A1A801623FB1828
S1130CF01B88FF2B01D9402305E07B681622BA1814
S1130D0012881A8000231800BD4606B080BD00007A
S1130D1080B584B000AF0200FB1D1A70BB1D0A1C15
S1130D201A701A4B1B7801225340DBB2002B03D1FB
S1130D30BB1D1B78002B1BD00C23FB181800144B75
S1130D4098470C23FB18FA1D12781A700C23FB1811
S1130D50190013200F4B984713200F4B98470B4B48
S1130D60FA1D12785A70094B01221A70002308E008
S1130D70064B5B78FA1D12789A4201D1002300E0F9
S1130D801D231800BD4604B080BDC0469400002059
S1130D907D0C000065370000A937000080B582B0E3
S1130DA000AF78600A00FB1C1A707B684D4A9342BE
S1130DB03FD04C4A934206D84B4A93420FD04B4AF9
S1130DC0934221D089E04A4A934200D15BE0494AE8
S1130DD0934200D16CE0484A93423FD07DE0FB1C33
S1130DE01B78012B0AD002DC002B05D075E0022B06
S1130DF006D0032B06D070E0404B6FE0404B6DE013
S1130E00404B6BE0404B69E0FB1C1B78012B0AD084
S1130E1002DC002B05D060E0022B06D0032B06D0A9
S1130E205BE003235AE0394B58E0394B56E0394B29
S1130E3054E0FB1C1B78012B0AD002DC002B05D0EC
S1130E404BE0022B06D0032B06D046E0324B45E0A4
S1130E50324B43E0324B41E0324B3FE0FB1C1B780A
S1130E60012B0AD002DC002B05D036E0022B06D081
S1130E70032B06D031E02C4B30E02C4B2EE02C4BD6
S1130E802CE02C4B2AE0FB1C1B78012B0AD002DC43
S1130E90002B05D021E0022B06D0032B06D01CE04A
S1130EA0254B1BE0254B19E0254B17E0254B15E09E
S1130EB0FB1C1B78012B0AD002DC002B05D00CE0B4
S1130EC0022B06D0032B06D007E01F4B06E01F4B76
S1130ED004E01F4B02E01F4B00E000231800BD4656
S1130EE002B080BD0010004200080042000C004225
S1130EF000180042001C00420014004203000400D9
S1130F0003000500030006000300070003000100BE
S1130F1003001E0003001F00030008000300090073
S1130F2003000A0003000B0003001000030011007B
S1130F30030012000300130003000C0003000D0063
S1130F4003000E0003000F00030016000300170047
S1130F50030018000300190090B58BB000AF78604F
S1130F600C23FB180F4A13CA13C313CA13C3002359
S1130F707B620EE00C23FB187A6A9200D3581A00A5
S1130F807B689A4202D17B6ADBB206E07B6A01335A
S1130F907B627B6A052BEDD900231800BD460BB09C
S1130FA090BDC0465081000080B582B000AF78602B
S1130FB00A00BB1C1A807B681B787F221340DAB2BC
S1130FC07B681A700B490C4B012218000B4B984795
S1130FD0BB1C1A887968084B1800094B98470549C7
S1130FE0054B00221800054B9847C046BD4602B089
S1130FF080BDC0466401002068010020C52A0000AD
S1131000B52B000090B585B000AF786008001100E2
S1131010BB1C021C1A807B1C0A1C1A707B1C1B78CC
S1131020802252421343DBB29AB20E23FB181A8079
S11310301049114B01221800104B98470E23F91840
S11310400D4B012218000E4B98470E23FB181C88E9
S1131050BB1C1A887968084823000A4CA047054934
S1131060054B00221800054B9847C046BD4605B005
S113107090BDC0466401002068010020C52A00001C
S1131080B52B00001929000090B585B000AF786039
S11310900E23FB18FA221A800E490F4B0122180066
S11310A00E4B98470E23F9180B4B012218000C4BDA
S11310B0984779680848002303220A4CA047054949
S11310C0054B00221800054B9847C046BD4605B0A5
S11310D090BDC0466401002068010020C52A0000BC
S11310E0B52B00001929000090B585B000AF7860D9
S11310F00E23FB18F7221A800E490F4B0122180009
S11311000E4B98470E23F9180B4B012218000C4B79
S1131110984779680848002303220A4CA0470549E8
S1131120054B00221800054B9847C046BD4605B044
S113113090BDC0466401002068010020C52A00005B
S1131140B52B00001929000090B585B000AF786078
S11311500E23FB18FD221A800E490F4B01221800A2
S11311600E4B98470E23F9180B4B012218000C4B19
S1131170984779680848002302220A4CA047054989
S1131180054B00221800054B9847C046BD4605B0E4
S113119090BDC0466401002068010020C52A0000FB
S11311A0B52B00001929000090B583B000AFBB1D1A
S11311B088221A801549164B01221800154B9847AE
S11311C0B91D134B01221800134B984713491048BB
S11311D000231A22124CA047BB1DE1221A80B91D1C
S11311E00B4B012218000C4B98470E49084800236A
S11311F007220B4CA0470549054B00221800054B5C
S11312009847C046BD4603B090BDC0466401002067
S113121068010020C52A0000B52B00001801002039
S1131220192900003201002080B500AF6C4B5B78B7
S11312309BB21B029AB26A4B1B789BB2D3189AB228
S1131240684B1A80664BDB789BB21B029AB2644BE4
S11312509B789BB2D3189BB21AB2634B1A80604B33
S11312605B799BB21B029AB25D4B1B799BB2D3187C
S11312709BB21AB25D4B1A80594BDB799BB21B02AD
S11312809AB2574B9B799BB2D3189AB2584B1A8097
S1131290534B5B7A9BB21B029AB2514B1B7A9BB2A3
S11312A0D3189BB21AB2534B1A804D4BDB7A9BB2C4
S11312B01B029AB24A4B9B7A9BB2D3189BB21AB2C6
S11312C04D4B1A80464B5B7B9BB21B029AB2444B3C
S11312D01B7B9BB2D3189BB21AB2484B1A80404B6B
S11312E0DB7B9BB21B029AB23D4B9B7B9BB2D31818
S11312F09BB21AB2424B1A80394B5B7C9BB21B02E5
S11313009AB2374B1B7C9BB2D3189BB21AB23D4B9B
S11313101A80334BDB7C9BB21B029AB2304B9B7C12
S11313209BB2D3189BB21AB2374B1A802C4B5B7DFD
S11313309BB21B029AB22A4B1B7D9BB2D3189BB261
S11313401AB2324B1A80264BDB7D9BB21B029AB237
S1131350234B9B7D9BB2D3189BB21AB22C4B1A80A1
S11313601F4B1A7E2B4B1A701D4B9B7E9BB21B028C
S11313709AB21B4B5B7E9BB2D3189BB21AB2264B1C
S11313801A80174BDA7E254B1A70154B5B7F9BB284
S11313901B019AB2124B1B7F9BB20F210B409BB2D5
S11313A0D3189BB21AB21E4B1A800D4BDB7F9BB233
S11313B01B019AB20A4B9B7F1B09DBB29BB20F2124
S11313C00B409BB2D3189BB21AB2164B1A80044B33
S11313D020229B5C5AB2144B1A70C046BD4680BD95
S11313E01801002060010020140100205201002097
S11313F0420100204E01002062010020560100201D
S1131400760100204A0100207401002048010020D8
S1131410580100207A010020780100205A010020A0
S113142016010020540100205001002080B586B030
S113143000AF78607B68DA10164B1B885B00D31A08
S1131440154A0021525E5343DB127B617B681B11FA
S1131450104A12889B1A7A6812110E490988521A86
S113146053431B130D4A0021525E53439B133B61AC
S11314707A693B69D2180A4B1A60094B1A6813003F
S11314809B009B1880331B12FB60FB681800BD4651
S113149006B080BD6001002014010020520100202C
S11314A07C01002080B586B000AF7860464B1B6895
S11314B05B10464A944663443B613B699B103A691E
S11314C092105343DB12424A0021525E5343FB60A5
S11314D0404B00229B5E1A003B6953435B00FA6851
S11314E0D318FB60FB689A103B4B00215B5E1B0426
S11314F0D318FB60394B00229B5E19003B699B109B
S11315003A69921053435B134B43DA10344B002176
S11315105B5E19003B694B435B10D3189B143B6122
S11315203B6980221202944663442E4A1288534334
S1131530DB133B613B69002B01D1002340E07B6856
S11315405B42FA6812139B1A274A5343274A94466C
S113155063447B617B69002B08DB7B695A00396932
S1131560234B1000984703007B6107E03A69204B46
S113157011007869984703005B007B611D4B0022D2
S11315809B5E19007B69DB087A69D20853435B0BC5
S11315904B431B133B617B699B081A00164B0021CC
S11315A05B5E53435B13FB603A69FB68D318134AD1
S11315B00021525E9B181A117B69D3187B617B69E9
S11315C01800BD4606B080BD7C0100200006FFFF68
S11315D04A0100207601002056010020620100200B
S11315E04E01002042010020350C0000000050C3D1
S11315F01158000058010020480100207401002007
S1131600F0B589B000AF7861754B1A68754B10005E
S11316109847754C0022754BA04703000C00BB6132
S1131620FC61704B7869984705000E00704B0022EE
S11316309A5E6C4B100098476E4C00226E4BA0478C
S113164003000C00BB60FC606C4B00215A5E654BD0
S1131650100098476A4C00226A4BA04703000C0014
S113166018002100634CBA69FB69A04703000C0011
S11316701A002300644CB868F968A04703000C0002
S11316801A002300584C28003100A04703000C0026
S11316901D0026005D4B00229A5E524B10009847B5
S11316A0574C00225A4BA04703000C00BB60FC605F
S11316B0584B00229A564B4B10009847504C00222E
S11316C0554BA04703000C0018002100494CBA698F
S11316D0FB69A04703000C003B607C604F4B1A7809
S11316E04F4B10009847464C00224B4BA047030039
S11316F00C00180021003F4CBA69FB69A0470300A5
S11317000C0018002100404C0022464BA047030067
S11317100C001A002300374C38687968A04703008E
S11317200C0018002100384C00223E4BA047030057
S11317300C001A0023002F4CB868F968A047030076
S11317400C001A0023002B4C28003100A047030092
S11317500C00BB61FC61344B1A78314B1000984784
S1131760244CBA69FB69A04703000C00180021004F
S1131770234C00222D4BA04703000C001A00230029
S1131780194C00202749A04703000C001A0023002D
S1131790184CB869F969A04703000C00BB61FC61EF
S11317A0234C0022234BB869F969A047031E04D0D7
S11317B00023204CBB61FC610BE01F4C0022002382
S11317C0B869F969A047031E03D000230024BB6154
S11317D0FC61BB69FC6918002100BD4609B0F0BD7D
S11317E07C010020AD750000416F000000C0F24094
S11317F016010020416A00000000504054010020FE
S1131800D96100000000D040B95B000078010020DD
S11318100000F04050010020000090415A010020D7
S1131820317600000000F03F7A01002000002041E2
S1131830515B000000005940295B0000F0B58FB0F7
S113184000AFF8603A607B607B4BF86898477B4C4C
S113185000227B4BA04703000C003B637C63794C64
S1131860794A7A4B386B796BA04703000C001A0055
S11318702300724C74487649A04703000C00BB62F5
S1131880FC62744C0022744BB86AF96AA0470300E6
S11318900C0018002100714C714A724BA0470300E0
S11318A00C003B627C62BB6AFC6A180021006E4B30
S11318B098476A4C6D4A6E4BA04703000C001A000F
S11318C02300604C386A796AA04703000C003B622D
S11318D07C625A4CBA6AFB6A00205F49A047030045
S11318E00C001A0023005B4C00205B49A047030056
S11318F00C0018002100594C5E4A5F4BA0470300BE
S11319000C0000205D491A0023005D4CA047514C97
S11319100022514BA04703000C00180021004F4C3B
S1131920584A594BA04703000C001A002300454CA9
S1131930386A796AA04703000C003B627C62454C1C
S11319400022454BB86AF96AA04703000C0018004E
S11319502100424C4D4A4E4BA04703000C0000208E
S113196046491A002300464CA0473A4C00223A4B01
S1131970A04703000C0018002100384C454A464B90
S1131980A04703000C001A0023002E4C386A796A21
S1131990A04703000C003B627C622A4C3F4A404B48
S11319A0386A796AA04703000C003B627C62294CC8
S11319B000223C4B386A796AA04703000C000020DF
S11319C02E491A0023002E4CA047244C3A687B6809
S11319D0A04703000C00BB61FC61184C324A334B36
S11319E0B869F969A04703000C0018002100304BC6
S11319F0984703000C003B617C61184C2D4A2E4B28
S1131A0038697969A04703000C001D002600114CB9
S1131A103A697B6929482A49A04703000C001A0047
S1131A202300064C28003100A04703000C001800D6
S1131A302100BD460FB0F0BDAD750000D9610000B6
S1131A4000005940B95B0000666666666612714024
S1131A5066527740416F00000000F03F416A000089
S1131A60B1C403CAA69C1FC0FD3F0000CDAFE60071
S1131A70C11C1440E3A59BC420B0264000002440B0
S1131A8015410000B13D4236248B82BE037D224FB6
S1131A9092EE0BC0630333F0EDA7803F1B549E40CE
S1131AA0B40B084000000840CFA0A17F828BE33F25
S1131AB0ED3E00005C8FC2F5283C6E40022B871679
S1131AC0D98E314090B587B000AF7860364B9847D7
S1131AD01423FB181800354B98471023FB181800E3
S1131AE0334B98470C23FB181800324B98471423A8
S1131AF0FB181B781A031423FB185B781B01D318FB
S1131B001422BA1892781209D2B29B1818002A4BE0
S1131B10984702007B681A601023FB181B781A038D
S1131B201023FB185B781B01D3181022BA18927883
S1131B301209D2B29B181800204B98470200204B80
S1131B4064211000984703001A007B685A600C2334
S1131B50FB181B781B020C22BA1852789B18180029
S1131B60184B98470A000100174B080011009847CA
S1131B70021C7B689A607B681C687B689A68134BBC
S1131B80101C984702000B002000114988470A00E6
S1131B9001000D4B080011009847021C7B68DA60B5
S1131BA0C046BD4607B090BDD51B0000891000009B
S1131BB0E9100000491100002D140000A5140000D4
S1131BC0255900000116000045770000A1760000A9
S1131BD03D18000080B582B000AF3B1DF4221A709E
S1131BE03B1D26225A703B1D02211800044B9847C6
S1131BF00F20044B9847C046BD4602B080BDC04686
S1131C00A90F00004D0C000080B582B000AF1C4B42
S1131C1098471C4B98471C4BD022012118001B4BA2
S1131C209847FB1C00221A70FB1CF22201211800A9
S1131C30164B98473B1DF2221A703B1D01225A7025
S1131C403B1D02211800124B98473B1DF4221A70C9
S1131C503B1D26225A703B1D022118000C4B98474D
S1131C603B1DF5221A703B1DC0225A703B1D0221F8
S1131C701800074B9847C046BD4602B080BDC04619
S1131C80A9110000291200004C01002005100000D9
S1131C90A90F000080B588B000AF786039607B6818
S1131CA01A680C23FB181A607B685A680C23FB180B
S1131CB05A607B68DA680C23FB18DA607B689A68E0
S1131CC00C23FB189A600023FB610BE0FB693A6864
S1131CD0D3180C22B918FA698A1812781A70FB6999
S1131CE00133FB61FB690F2BF0DDC046BD4608B034
S1131CF080BD000080B584B000AF0200FB1D1A70E7
S1131D000F23FB18FA1D1278D2091A700E23FB1840
S1131D10FA1D127852091A700D4BBB600F23FB1881
S1131D201B78002B0FD10F23FB181B789B0010226C
S1131D309446BC446344083B1A680E23FB181B7882
S1131D40DB01D31800E000231800BD4604B080BDB9
S1131D500044004180B582B000AF0200FB1D1A7040
S1131D60FB1D1B781800034B984703001800BD4661
S1131D7002B080BDF51C000080B582B000AF786071
S1131D807B6800221A707B6801225A707B680022EB
S1131D909A70C046BD4602B080BD000080B584B0D4
S1131DA000AF0200FB1D1A70BB1D0A1C1A70FB1D3C
S1131DB01B7818000D4B98470300FB60FB1D1B7834
S1131DC01F22134001229A401300BB60BB1D1B78E5
S1131DD0002B03D0FB68BA689A6102E0FB68BA681A
S1131DE05A61C046BD4604B080BDC046551D0000C2
S1131DF080B584B000AF78607B681B68FB60FB68CB
S1131E00DB695A1E9341DBB21800BD4604B080BDA5
S1131E1080B582B000AF78607B6801221A707B685D
S1131E2000225A607B6800229A607B68C022920379
S1131E30DA607B6800221A747B6800225A747B681B
S1131E4001229A747B680122DA747B6800221A7575
S1131E507B682422002199547B6818330C220021CA
S1131E6018000A4B98477B68094A9A617B680022EC
S1131E709A627B680022DA627B6800221A637B68BC
S1131E8000225A63C046BD4602B080BDFB78000004
S1131E90A086010080B582B000AF78607B680A221A
S1131EA01A707B6800225A707B6800229A70C046C0
S1131EB0BD4602B080BD000080B584B000AF78603C
S1131EC039603B681A787B681A703B685A787B687B
S1131ED05A703B689A787B689A700C23FB18180038
S1131EE00B4B98470C23FB1801221A707B681B7854
S1131EF00C22BA1811001800064B98477B681B780F
S1131F0001211800044B9847C046BD4604B080BD6B
S1131F10791D0000F12E00009D1D000080B584B0E5
S1131F2000AF78607B681B68FB60C0467B68180064
S1131F30064B9847031EF9D1FB681B6802221A431B
S1131F40FB681A60C046BD4604B080BDF11D0000A8
S1131F5080B590B000AF3B1D1800234B98473B1D44
S1131F6010221A703A1D214B11001800204B98477B
S1131F703B0018001C4B98473B000C221A703A0097
S1131F801C4B110018001A4B98470823FB18180023
S1131F90194B98470823FB18C0229203DA600823E0
S1131FA0FB18164A9A620823FB18154ADA620823BA
S1131FB0FB18012252421A630823FB18114A5A6380
S1131FC00823FB1801229A740823FA180E490F4BB0
S1131FD018000F4B98470D4B18000E4B9847C046FE
S1131FE0BD4610B080BDC046951E000064010020AF
S1131FF0B91E00005C010020111E00000200080050
S11320000200090002000B000008004268010020E1
S1132010112800001D1F000080B582B000AF786059
S11320207B6880221A707B6800225A707B680122C8
S11320309A707B680022DA70C046BD4602B080BD4B
S113204080B584B000AF0200FB1D1A700F23FB188B
S1132050FA1D1278D2091A700E23FB18FA1D127891
S113206052091A700D4BBB600F23FB181B78002B11
S11320700FD10F23FB181B789B0010229446BC44FD
S11320806344083B1A680E23FB181B78DB01D31842
S113209000E000231800BD4604B080BD00440041A8
S11320A080B586B000AF0200FB1D1A70FB1D1B78C3
S11320B01800194B984703007B61FB1D1B781F22F6
S11320C013403B617A6940213B69D3185B181B7844
S11320D0DBB21A000123134001D1802318E03B69CD
S11320E05B087A693021D3185B181B78DBB2FB607C
S11320F03B690122134006D0FB681B09DBB20F22A7
S11321001340DBB204E0FB68DBB20F221340DBB206
S11321101800BD4606B080BD4120000080B582B0E5
S113212000AF0200FB1D1A70FB1D1B781800034B47
S1132130984703001800BD4602B080BD412000004E
S113214080B584B000AF0200FB1D1A70BB1D0A1CD1
S11321501A70FB1D1B7818000D4B98470300FB6099
S1132160FB1D1B781F22134001229A401300BB6001
S1132170BB1D1B78002B03D0FB68BA689A6102E090
S1132180FB68BA685A61C046BD4604B080BDC0460B
S11321901D21000080B582B000AF78607B6800220A
S11321A01A70C046BD4602B080BD000080B582B042
S11321B000AF02003960FB1D1A70FB1D1B78012B58
S11321C00AD0022B0FD0002B14D10E4B0D4A91696B
S11321D03A680A439A610FE00A4B0A4AD1693A689D
S11321E00A43DA6108E0074B064A116A3A680A436F
S11321F01A6201E0172300E000231800BD4602B074
S113220080BDC0460004004080B500AF054B9B78FC
S1132210DBB21A00022313405A1E9341DBB21800AA
S1132220BD4680BD0020004180B584B000AF786019
S11322307B681B68FB60FB681B7EDBB21A00022311
S113224013405A1E9341DBB21800BD4604B080BD52
S113225080B584B000AF78607B681B68FB60FB6866
S11322601B7EDBB21A00012313405A1E9341DBB2DA
S11322701800BD4604B080BD80B584B000AF78605E
S11322807B681B68FB60FB681B7EDBB21A000423BF
S113229013405A1E9341DBB21800BD4604B080BD02
S11322A080B584B000AF78600A00BB1C1A807B68DC
S11322B01B68FB607B6818000A4B984703001A00F0
S11322C001235340DBB2002B01D0052306E0BB1CE5
S11322D01B88DB05DA0DFB689A6200231800BD46F3
S11322E004B080BD5122000080B584B000AF786096
S11322F039607B681B68BB607B6818001B4B984780
S113230003001A0001235340DBB2002B01D0102339
S113231027E00F23FB1800221A70BB685B8B9BB26B
S11323201A000423134006D00F23FB181E221A7030
S1132330BB6804225A837B689B79012B08D1BB6854
S11323409B6A9BB2DB05DB0D9AB23B681A8005E001
S1132350BB689B6ADBB29AB23B681A800F23FB18F6
S11323601B781800BD4604B080BDC0467922000029
S113237080B584B000AF78607B681B68FB60FB6845
S113238002221A76C046BD4604B080BD90B593B013
S113239000AF786039607B681B687B637B681B686F
S11323A03B631C23FB181800854B98471C23FB1820
S11323B000225A703B681B78002B03D11C23FB18A6
S11323C000229A703B689A6A0C23FB181A603B68D7
S11323D0DA6A0C23FB185A603B681A6B0C23FB184F
S11323E09A603B685A6B0C23FB18DA604723FB188E
S11323F000221A702CE04723FB181A780C23FB18D0
S11324009200D3583B643B6C002B09D14723FB1843
S11324101A783B6B110018006A4B984703003B6421
S11324203B6C01330DD03B6CDAB21C23FB181A70E1
S11324303B6C1B0CDBB21C22BA1811001800624B57
S113244098474723FB181A784723FB1801321A7060
S11324504723FB181B78032BCDD93B681A787B687C
S11324605A713B681A7C7B689A713B689A7C7B68DA
S1132470DA713B681A7D7B681A720A23FB18002202
S11324801A800023FB630023BB633B681B78012B8A
S113249029D17B681B6818004C4B98470300FB62EA
S11324A0FB6A1433BB62BB6ADBB21800484B984723
S11324B003007B623B689B692322BC180A22BA187A
S11324C0796A1800434B9847030023702323FB18B1
S11324D01B78002B01D017236DE00A23FB181B88FF
S11324E0DAB27B6B1A733B681B78002B1AD13B68FA
S11324F09B69FB633B689B8BBB637B6B5B6A3A6842
S1132500927F11003A68D27F12040A431A437B6B0C
S11325105A623B6820229B5C002B03D0BB6B402299
S11325201343BB633B685B68FA6B1343FB633B6811
S11325309B68FA6B1343FB633B68DB68FA6B1343DA
S1132540FB633B681B7C1A00BB6B1343BB633B6898
S11325505B7C002B03D1204B9847031E03D0FB6BFD
S113256080221343FB633B689B7C002B04D0BB6B32
S1132570802292021343BB633B68DB7C002B04D0B4
S1132580BB6B802292001343BB633B681B7D002B13
S113259004D0BB6B802292011343BB637B6B1A682C
S11325A0FB6B1A437B6B1A607B6B5A68BB6B1A43D9
S11325B07B6B5A6000231800BD4613B090BDC04623
S11325C0192000009D0D0000513A0000590F000031
S11325D089380000930C00000922000090B591B0E6
S11325E000AF786039607B681B68FB627B681B689E
S11325F0BB623B689A6A0C23FB181A603B68DA6A70
S11326000C23FB185A603B681A6B0C23FB189A6066
S11326103B685A6B0C23FB18DA603F23FB1800223B
S11326201A7030E03F23FB181A780C23FB18920031
S1132630D358BB63BB6B002B09D13F23FB181A781B
S1132640BB6A110018006E4B98470300BB63BB6B59
S1132650013310D0BB6B1B041C0CBB6B1B0CDBB21B
S11326601800684B984703009C4205D07B68002201
S11326701A601C23BFE0C0463F23FB181A783F238F
S1132680FB1801321A703F23FB181B78032BC9D99E
S113269013205D4B984703007B6200237B63002378
S11326A03B6300233B623B681B78012B21D13B68D1
S11326B09B691F22BC180A22BA18796A1800534B66
S11326C09847030023701F23FB181B78002B01D0AD
S11326D0172390E0FB6A1B7BDAB20A23FB181B88E2
S11326E0DBB29A4201D01C2385E07B6B0C2213439E
S11326F07B633B681B78002B29D13B689B697A6B11
S113270013437B633B689B8B1A003B6B13433B6314
S11327103B689B7F1A003B68DB7F1B0413431A0052
S11327203B6A13433B62FB6A1A683B6A9A4201D0D4
S11327301C2360E03B6820229B5C002B03D03B6B96
S1132740402213433B637B6B082213437B633B6848
S11327505B687A6B13437B633B689B687A6B1343B8
S11327607B633B68DB687A6B13437B633B681B7C4E
S11327701A003B6B13433B633B685B7C002B03D029
S11327807B6B802213437B633B689B7C002B04D0D0
S11327903B6B8022920213433B633B68DB7C002B40
S11327A004D03B6B8022920013433B633B681B7D48
S11327B0002B04D03B6B8022920113433B637B6B61
S11327C0022213437B63FB6A1A687B6B9A420ED125
S11327D0FB6A5A683B6B9A4209D13B681A787B685A
S11327E05A713B681A7C7B689A71002303E07B680A
S11327F000221A601C231800BD4611B090BDC046CB
S11328009D0D0000A120000089380000930C0000F9
S113281080B58AB000AFF860B9607A60FB68BA68C6
S11328201A60FB681B687B627B6A1B680222134088
S113283007D07A68FB68110018002F4B98470300F3
S113284055E07B6A1B680122134001D005234EE04A
S1132850FB681B681800294B984703003B623B6ADE
S11328600233FB613B6A1433BB610122FB699A406A
S1132870130019000220224B98471423FB18180058
S1132880204B98477B6824229A5C1423FB181A7007
S1132890BB69DBB21422BA18110018001A4B98470E
S11328A0BB69DBB21800194B98477B6824229B5CF8
S11328B000211800164B98477B681B78012B05D123
S11328C07B6A1B680C221A437B6A1A607B681B783C
S11328D0002B05D17B6A1B6808221A437B6A1A60A5
S11328E07A68FB68110018000A4B98470300180027
S11328F0BD460AB080BDC046DD250000590F00006A
S1132900AD2100009521000065370000A9370000C3
S1132910110D00008D23000090B589B000AFF86060
S1132920B9601900BB1D1A803B1D0A1C1A80BB1D0F
S11329301B88002B01D11723B2E0FB68DB7901224D
S11329405340DBB2002B01D01C23A9E0FB685B7968
S1132950002B09D1FB681800534B9847031E03D082
S1132960FB681800514B98471E23FB1800221A805D
S11329708DE0FB685B79012B12D1C046FB6818001F
S11329804B4B984703001A0001235340DBB2002B42
S1132990F4D13B1D1A88FB6811001800454B984779
S11329A0FB685B79002B2AD10023BB6108E0FB683C
S11329B01800414B9847031E07D1BB690133BB6123
S11329C0BB693E4A9342F2D900E0C046FB68180056
S11329D0354B9847031E05D0FB681800334B9847C6
S11329E004235DE0FB681800334B984703001A008A
S11329F001235340DBB2002B01D0122350E0C04628
S1132A00FB6818002C4B984703001A00012353401D
S1132A10DBB2002BF4D11423FB1800221A801723F5
S1132A20FC181423FA18FB6811001800244B98476B
S1132A30030023701723FB181B78002B03D01723E4
S1132A40FB181B782CE01E23FB181B881E22BA18C7
S1132A50591C11801A00BB689B181422BA181288DA
S1132A60D2B21A70FB689B79012B10D11E23FB187C
S1132A701B881E22BA18591C11801A00BB689B18A7
S1132A801422BA181288120A92B2D2B21A70BB1D5A
S1132A901B88BA1D591E1180002B00D069E7002342
S1132AA01800BD4609B090BD292200007123000022
S1132AB051220000A122000079220000102700000A
S1132AC0E922000080B586B000AFF860B960FB1D54
S1132AD01A70FB685B79012B01D015235CE0FB685D
S1132AE01B7A01225340DBB2002B54D0FB1D1B7810
S1132AF0002B4AD0BB685B78002B3FD0FB681800E2
S1132B00274B984703001A0001235340DBB2002BE4
S1132B1007D0BB681B7801211800224B9847052376
S1132B203AE0BB681B78002118001E4B9847BB682D
S1132B309B789AB2FB68110018001B4B9847FB68FE
S1132B40DB7901225340DBB2002B24D0C046FB6862
S1132B501800164B984703001A0001235340DBB2B8
S1132B60002BF4D11623FB1800221A801623FA181E
S1132B70FB68110018000E4B98470CE0BB681B78EB
S1132B8000211800074B984705E0BB681B7801211A
S1132B901800044B984700231800BD4606B080BDBA
S1132BA05122000041210000A122000079220000EE
S1132BB0E922000080B58AB000AFF860B960BB1D9F
S1132BC01A80BB1D1B88002B01D117236AE1FB6807
S1132BD05B79002B09D1FB681800B44B9847031E9E
S1132BE003D0FB681800B24B98472623FB18002239
S1132BF01A802423FB18BA1D12881A80FEE0FB6891
S1132C005B79002B2AD100233B6208E0FB681800A3
S1132C10A84B9847031E07D13B6A01333B623B6ACA
S1132C20A54A9342F2D900E0C046FB6818009F4BC6
S1132C309847031E05D0FB6818009D4B9847042352
S1132C4030E1FB6818009B4B984703001A000123EE
S1132C505340DBB2002B01D0122323E1C046FB68B2
S1132C601800944B984703001A0001235340DBB229
S1132C70002BF4D12623FB181B882622BA18591CD2
S1132C8011801A00BB689B181A781E23FB181A803F
S1132C90FB689B79012B15D12623FB181B88262260
S1132CA0BA18591C11801A00BB689B181B781B02A8
S1132CB01AB21E23FB1800215B5E13431AB21E23B3
S1132CC0FB181A801E23FB181A88FB6811001800D1
S1132CD07A4B9847FB68DB792422BA1824217918A7
S1132CE009881180002B00D188E0FB685B79002BF8
S1132CF000D069E00023BB6147E0BB1D1B88002BAB
S1132D003AD0FB6818006B4B9847031E34D0262337
S1132D10FB181B882622BA18591C11801A00BB689C
S1132D209B181A781E23FB181A80FB689B79012BC9
S1132D3015D12623FB181B882622BA18591C11808A
S1132D401A00BB689B181B781B021AB21E23FB18BF
S1132D5000215B5E13431AB21E23FB181A801E2344
S1132D60FB181A88FB6811001800544B9847BB1DC8
S1132D701A88BB1D013A1A80FB681800504B98470B
S1132D80031E07D1BB690133BB61BB694A4A934245
S1132D90B3D900E0C046FB681800444B9847031EB3
S1132DA005D0FB681800424B984704237AE0FB687F
S1132DB01800434B984703001A0001235340DBB229
S1132DC0002B01D012236DE0C046FB6818003C4B79
S1132DD0984703001A0001235340DBB2002BF4D1BF
S1132DE01223FA18FB6811001800364B9847242365
S1132DF0FB181A882423FB18013A1A80BB1D1B8870
S1132E00BA1D591E1180002B00D0F8E6FB685B79CF
S1132E10012B0BD1C046FB681800244B98470300D4
S1132E201A0001235340DBB2002BF4D1FB685B7919
S1132E30002B36D1FB68DB79002B32D02CE0002349
S1132E407B6108E0FB6818001D4B9847031E07D1FF
S1132E507B6901337B617B69174A9342F2D900E0B5
S1132E60C046FB681800164B984703001A0001235C
S1132E705340DBB2002B01D0122313E01023FA18C5
S1132E80FB68110018000F4B98472423FB181A887D
S1132E902423FB18013A1A802423FB181B88002BD7
S1132EA0CDD100231800BD460AB080BD2922000000
S1132EB0712300005122000010270000A12200000D
S1132EC079220000E922000080B582B000AF78606A
S1132ED07B6880221A707B6800225A707B6801220A
S1132EE09A707B680022DA70C046BD4602B080BD8D
S1132EF080B584B000AF02003960FB1D1A700C234A
S1132F00FB181800104B98470C23FB1880221A70EA
S1132F103B681A780C23FB185A703B685A780C23C8
S1132F20FB189A703B689A780C23FB18DA700C2310
S1132F30FA18FB1D1B7811001800044B9847C04673
S1132F40BD4604B080BDC046C92E0000513A000001
S1132F5080B500AFC046BD4680BD000080B582B0DC
S1132F6000AF104B1B68002B12D1EFF310837B6072
S1132F707B68002B09D172B6BFF35F8F0A4B002226
S1132F801A700A4B01221A7002E0084B00221A70D0
S1132F90044B1B685A1C034B1A60C046BD4602B062
S1132FA080BDC04698000020080000209C0000203E
S1132FB080B500AF0B4B1B685A1E0A4B1A60094BB5
S1132FC01B68002B0AD1084B1B78DBB2002B05D001
S1132FD0064B01221A70BFF35F8F62B6C046BD462E
S1132FE080BDC046980000209C00002008000020FE
S1132FF080B582B000AF78607B6801225A607B683C
S113300000225A707B6806221A707B6800221A72AA
S11330107B6800225A72C046BD4602B080BD80B5AE
S113302082B000AF78607B6803221A707B6800224C
S11330305A707B6801229A70C046BD4602B080BDBA
S113304080B582B000AF0200FB1D1A70034AFB1D5D
S11330501B781372C046BD4602B080BD0004004018
S113306080B582B000AF0200FB1D1A70BB1D0A1CA4
S11330701A70FB1D1B78012B08D0022B0BD0002BE0
S11330800ED10B4ABB1D1B7853720BE0084ABB1DC3
S11330901B78937206E0064ABB1D1B78D37201E0CD
S11330A0172300E000231800BD4602B080BDC046CF
S11330B00004004080B582B000AF0200FB1D1A700E
S11330C0084AFB1D1B780F210B40D9B253680F200F
S11330D0014049001E2083430B435360C046BD4654
S11330E002B080BD0040004180B500AFC046044B33
S11330F0DB6810221340FAD0C046BD4680BDC046EE
S11331000008004080B500AF0C4B02229A840C4B9F
S113311098470A4A0B4B9B68D362084A094B5B6881
S11331209362064B00229A84054B9847034A054B49
S11331301B689BB29384C046BD4680BD0008004016
S1133140E9300000A000002080B582B000AF02008A
S1133150FB1D1A70FB1D1B78082B41D89A00234BCA
S1133160D3181B689F46224B1B693AE0214B1B6A0C
S11331709B059B0FDBB21A001F4BD34031E0802329
S11331801B022EE080231B022BE0194B5B6928E015
S1133190174B1B680222134001D1002321E0174B77
S11331A09847134B1B6824221340042B09D1002099
S11331B0134B984702000E4B9B681B041B0C534394
S11331C00FE0104B0DE00B4A5023D35CDBB21A0026
S11331D00423134001D1002303E0054BDB6800E026
S11331E000231800BD4602B080BDC04668810000BF
S11331F0A00000200008004000127A00E93000001E
S113320089380000006CDC0280B584B000AF7860BF
S11332101A4B1B6AFB607B681B781A1C0323134040
S1133220DAB20D23FB1803210A4010001A78032197
S11332308A43111C021C0A431A707B689A780C2377
S1133240FB18D0011A787F210A40111C021C0A4382
S11332501A707B685A780C23FB1801210A409001EC
S11332601A7840218A43111C021C0A431A70034B2A
S1133270FA681A62C046BD4604B080BD000800402A
S113328080B582B000AF0200FB1D1A70FB1D1B78D5
S1133290082B3BD89A00214BD3181B689F46204B20
S11332A01F4A126A02210A431A62002331E01C4BAE
S11332B01B4A926902210A439A6129E0184A184B71
S11332C01B8A9BB202210B439BB2138220E0144A57
S11332D0134B9B8A9BB202210B439BB2938217E050
S11332E0104B1B6802221A430E4B1A600E4B984770
S11332F00EE00B4A0A494423CB5CDBB202210B43A8
S1133300D9B24423D15403E0002302E0172300E0A0
S113331000231800BD4602B080BDC0468C81000069
S113332000080040A00000200531000080B582B0F4
S113333000AF3B0001221A7000237B6009E07B6828
S1133340DBB23A0011001800054B98477B68013343
S11333507B607B68242BF2D9C046BD4602B080BD99
S11333606537000080B5A0B000AF274BC222D20061
S11333709A600020254B9847254B98477C23FB18DF
S11333801800244B98477C23FB1800221A707C23D6
S1133390FB1801229A707C23FB1800225A707C23AC
S11333A0FB1818001C4B984706201C4B98471C4BD5
S11333B0984700201B4B9847002100201A4B984740
S11333C000210120184B984700210220164B9847F2
S11333D03B1D1800154B98473B1D06221A703B1DD8
S11333E001225A603B1D00221A723B1D00225A72B0
S11333F03B1D190000200E4B984700200D4B9847A9
S1133400C046BD4620B080BD00080040B530000075
S11334102D3300001F30000009320000813200000B
S1133420DD3400004130000061300000F12F000065
S11334300D3500003136000080B582B000AF0200C7
S11334403960FB1D1A70FB1D1B78012B0AD0022B5F
S11334500FD0002B14D10E4B0D4A91693A680A43E0
S11334609A610FE00A4B0A4AD1693A680A43DA6161
S113347008E0074B064A116A3A680A431A6201E0F7
S1133480172300E000231800BD4602B080BDC046EB
S11334900004004080B500AF024B9847C046BD46CB
S11334A080BDC0465D2F000080B500AF024B984739
S11334B0C046BD4680BDC046B12F000080B500AFF8
S11334C0054B5B78DBB25BB2002B01DA012300E031
S11334D000231800BD4680BD000C004080B500AF3D
S11334E008210020074B9847074B01221A70C04659
S11334F0054B1B78DBB21A0001231340F8D1C046F8
S1133500BD4680BD39340000000C004080B586B053
S113351000AF02003960FB1D1A70FB1D1B787B6134
S1133520FB1D1B783B613B681B781B021A007B69FF
S113353013437B613B685B78002B04D07B6980225A
S1133540D20213437B613B685B7A002B04D07B6916
S11335508022120313437B613B685B68012B2CD9E7
S11335603B685A683B685B68013B13401AD10023EF
S1133570FB600223BB6005E0FB680133FB60BB68B2
S11335805B00BB603B685A68BB689A42F4D8FB682E
S11335901B023A6913433B617B6980225203134344
S11335A07B610AE03B685B681B023A6913433B6139
S11335B07B698022920213437B613B681B7A002B58
S11335C004D07B698022920313437B61C046134B72
S11335D09847031EFBD1124B9847124AFB1D1B78D8
S11335E01370C0460D4B9847031EFBD10E4B3A692E
S11335F09A60C046094B9847031EFBD10A4B0A4AFE
S113360051688022520211407A690A435A60074B7A
S11336109847C046BD4606B080BDC046BD340000D4
S113362095340000080C0040000C0040A934000050
S113363080B582B000AF0200FB1D1A70C0460E4B6D
S11336409847031EFBD10D4B98470D4AFB1D1B7871
S11336501370C046084B9847031EFBD1094B094A17
S11336605268802149020A435A60074B9847C04672
S1133670BD4602B080BDC046BD3400009534000094
S1133680040C0040000C0040A934000080B586B052
S113369000AF0200FB1D1A70C0462A4B9847031E58
S11336A0FBD1294B9847294AFB1D1B781370C04650
S11336B0244B9847031EFBD1254B5B68DB04DB0ED0
S11336C0DBB21800234B984703007B611F4AFB1DA4
S11336D01B7813701E4B5B68DB02DB0FDAB213231B
S11336E0FB181A701C4AFB1D1B781370C046154B3F
S11336F09847031EFBD1164B9B681B021B0C9BB205
S1133700FB60164B98471323FB181B78002B09D139
S1133710FB68012B06D9124BF968786998470300B6
S11337207B610AE01323FB181B78002B05D0FB6890
S113373001337A69DA4013007B617B691800BD4666
S113374006B080BDBD34000095340000040C004078
S1133750000C004049310000080C0040A93400006E
S11337601158000080B584B000AF02003960FB1D21
S11337701A70FB1D1B78FB603B681B781B021A0048
S1133780FB681343FB60FB1D1B781800044B984730
S1133790044BFA6892B25A80C046BD4604B080BD5C
S11337A0F1370000000C004080B582B000AF020089
S11337B0FB1D1A700A4B98470A4AFB1D1B781370AD
S11337C00949094B5B889BB28022D20113439BB207
S11337D04B80064B9847C046BD4602B080BDC046EC
S11337E095340000020C0040000C0040A934000095
S11337F080B584B000AF0200FB1D1A701C4B9847C3
S11338001C4AFB1D1B7813701B4B5B881B051B0F8D
S1133810DBB2FB60184A538818490B405380164AA0
S1133820154B5B889BB216490B409BB25380C04634
S1133830114B5B889BB21A008023DB011340F7D144
S11338400D4AFB68DBB2191C0F230B40D9B2538815
S1133850081C0F210140080208490B40191C031CD5
S11338600B435380074B9847C046BD4604B080BD08
S113387095340000020C0040000C0040FFF0FFFFF4
S1133880FFBFFFFFA934000080B584B000AF020081
S1133890FB1D1A700D4B98470D4AFB1D1B781370C6
S11338A00C4B5B881B051B0FDAB20F23FB181A7035
S11338B0094B98470F23FB181B781800074B9847B0
S11338C003001800BD4604B080BDC0469534000016
S11338D0020C0040000C0040A93400008D360000AA
S11338E080B584B000AF0200FB1D1A700F23FB18D3
S11338F0FA1D1278D2091A700E23FB18FA1D1278D9
S113390052091A700D4BBB600F23FB181B78002B58
S11339100FD10F23FB181B789B0010229446BC4444
S11339206344083B1A680E23FB181B78DB01D31889
S113393000E000231800BD4604B080BD00440041EF
S113394080B588B000AFF860B9607A600023FB618D
S11339507B68DB7801225340DBB2002B35D07B68D7
S11339601B78802B0BD0FB69802252021343FB612E
S11339707B681B781B061A00FB691343FB617B6899
S11339805B78002B03D07B685B78022B10D1FB693A
S1133990802292021343FB617B689B78002B04D046
S11339A0FB698022D2021343FB61FB68BA685A6048
S11339B07B685B78012B03D07B685B78022B07D193
S11339C0FB69224A1340FB6102E0FB68BA685A6053
S11339D0BB681B041B0CBB61BB681B0C7B61BA6915
S11339E0FB691343A022D2051A43FB689A627A69E1
S11339F0FB691343D02212061A43FB689A627B6860
S1133A00DB7801225340DBB2002B1AD0FA69802301
S1133A10DB0213400AD07B689B78012B03D1FB683F
S1133A20BA689A6102E0FB68BA685A617B685B789D
S1133A30012B03D07B685B78022B02D1FB68BA6848
S1133A409A60C046BD4608B080BDC046FFFFFBFF7C
S1133A5080B584B000AF02003960FB1D1A70FB1DF5
S1133A601B7818000A4B98470300FB60FB1D1B786A
S1133A701F22134001229A401300BB603A68B968C0
S1133A80FB681800034B9847C046BD4604B080BD90
S1133A90E13800004139000080B500AFC046BD46A2
S1133AA080BD000080B500AF064B9847064B984791
S1133AB0064B9847064B9847064B9847C046BD4669
S1133AC080BDC04665330000512F0000993A0000C4
S1133AD055040000993A000080B582B000AF2F4B26
S1133AE07B602F4B3B607A683B689A420CD007E0BE
S1133AF03B681A1D3A607A68111D796012681A6071
S1133B003A68284B9A42F3D3274B3B6004E03B6866
S1133B101A1D3A6000221A603A68244B9A42F6D37E
S1133B20234B7B60234B7A68FF218A439A60224AA5
S1133B3090235B000221D150204AD37803218B4388
S1133B40191C02230B43D3701C4AD3780C218B43DA
S1133B50191C08230B43D370194A937B30218B43E0
S1133B60191C20230B439373154A937B0C218B431D
S1133B70191C08230B439373114A937B03218B4332
S1133B80191C02230B4393730E4A536880210B4381
S1133B9053600D4B98470D4B9847FEE70C8300008C
S1133BA0000000207800002078000020E4010020BC
S1133BB00000000000ED00E00070004100500041F2
S1133BC00048004100400041A1780000D13D0000C0
S1133BD080B582B000AFEFF305837B607A68014B58
S1133BE01A60F8E70C00002080B584B000AF78605C
S1133BF00A4B1B68002B02D1084B094A1A60074B79
S1133C001B68FB60054B1A687B68D218034B1A606B
S1133C10FB681800BD4604B080BDC046B800002053
S1133C20E821002080B584B000AF0200FB1D1A70AB
S1133C301A4B9B69FB60FA68F0231B011340FB607D
S1133C40FB681B0AFB60FB68022B05D8144A536807
S1133C50C02189000B435360FB1D1B78002B16DB2E
S1133C60022B02DD032B0BD011E00E4B0D4A12691F
S1133C7004218A431A610C4AFB1D1B78537008E027
S1133C80084B084A126904210A431A6101E0172308
S1133C9000E000231800BD4604B080BD00200041B0
S1133CA00040004100ED00E00004004080B500AF9A
S1133CB0BFF34F8F30BFC046BD4680BD80B582B0D4
S1133CC000AF0200FB1D1A7072B6BFF35F8F0B4B7F
S1133CD000221A70FB1D1B78013BDBB21800084B55
S1133CE09847064B01221A70BFF35F8F62B6054BEB
S1133CF09847C046BD4602B080BDC04608000020BB
S1133D00253C0000AD3C000080B582B000AFFB1D37
S1133D1000221A7009E0FB1D1B78094A0021D154C6
S1133D20FB1D1A78FB1D01321A70FB1D1B78032B37
S1133D30F1D9034B01221A71C046BD4602B080BDC1
S1133D400C01002080B582B000AFFB1D00221A7068
S1133D500A4B3B6007E03B6801333B60FB1DFA1DE7
S1133D60127801321A703B681B78002BF3D0FB1DCC
S1133D701B781800BD4602B080BDC0460C0100206F
S1133D8090B583B000AF72B6BFF35F8F0D4B0022C6
S1133D901A70FC1D0C4B984703002370FB1D1B7805
S1133DA0002B06D1074B01221A70BFF35F8F62B656
S1133DB004E0FB1D1B781800044B9847BD4603B074
S1133DC090BDC04608000020453D0000BD3C0000F9
S1133DD090B583B002AF2E4B98472E4B98472E4B8D
S1133DE098472E4B98472E4B98472E4B98472E4B6F
S1133DF098472E4A2E4B1000190020231A002D4BF1
S1133E0098472A4B18002C4B98472C49274B2A22B9
S1133E1018002B4B9847254B1800274B9847294BE4
S1133E209847294B01221A70274B1B78002BFBD093
S1133E30264B1800264B9847264A244B110018009D
S1133E40254B9847254B18001B4B98471F4B1A6866
S1133E50234B64211000984703001C001B4B9A68F5
S1133E60204B101C98470200184B5B681E490F48F2
S1133E70009313002200124CA0470C4B18000E4B69
S1133E809847114B00221A700E4B9847CCE7C04656
S1133E90A53A0000F50B0000511F0000F90A0000CC
S1133EA0091C0000E1070000093D0000800100201A
S1133EB0B0810000E9780000790B0000D081000097
S1133EC00D790000813D000008010020C0010020A0
S1133ED0C51A0000D0010020951C0000E4810000F8
S1133EE025590000795B0000F8810000F0B5C64652
S1133EF000B58CB004000D0000F0B8FA3A4B06008F
S1133F001B780F005BB2984601330FD022002B00C0
S1133F102000290003F02AFB002807D100220023F7
S1133F202000290001F014FE002805D030003900DB
S1133F300CB004BC9046F0BD2C4B0A90039343464E
S1133F400494059506940795002B1AD1E022284B7A
S1133F50120608920993200000220023290001F090
S1133F60DDFD002838D00223029302A801F036FBBD
S1133F70002817D00A9B0193002B18D1089E099F93
S1133F80D4E700221B4B2000089209932900002249
S1133F90002301F0C3FD00280FD0022302934346FF
S1133FA0022BE2D103F076FC22230360E2E703F064
S1133FB071FC0A9B01930360E0E7012302934346EB
S1133FC0022B0BD103F066FC212303600A4801F0A5
S1133FD007FB08900991CDE70123029302A801F0A1
S1133FE0FDFA0028F2D1EDE7100000201482000051
S1133FF0FFFFEFC70000F0FF18820000F0B547464E
S1134000CE4680B58DB004000D0000F031FC3C4B71
S113401006001B780F005BB29846013310D02200D3
S11340202B002000290003F0A1FA8146002807D1C3
S1134030002200232000290001F080FD002806D181
S1134040300039000DB00CBC90469946F0BD2D4BA4
S11340500494059503934B460A93434606940795A7
S1134060002B1AD1E022284B120608920993200053
S113407000220023290001F051FD002838D002233A
S1134080029302A801F0AAFA002817D00A9B019310
S1134090002B18D1089E099FD2E700221B4B200059
S11340A00892099329000022002301F037FD00281B
S11340B00FD0022302934346022BE2D103F0EAFB22
S11340C022230360E2E703F0E5FB0A9B019303600C
S11340D0E0E7012302934346022B0BD103F0DAFB02
S11340E0212303600A4801F07BFA08900991CDE787
S11340F00123029302A801F071FA0028F2D1EDE73E
S1134100100000201C820000FFFFEFC70000F0FF3A
S113411018820000F0B557464E46DE464546E0B5E7
S11341208FB01D0006000F00140000F033FCC74BD5
S1134130009001919A461B785BB2994601333ED0B8
S113414022002B002000290003F010FA83460028E7
S113415035D132003B003000390003F007FA002269
S11341600390002800D0B6E000233000390001F0AD
S1134170D5FC00282CD0002200232000290001F0C7
S1134180CDFC8346002800D177E004AB9846012398
S113419042460493AE4B53604346039A1C615D61EF
S11341A01A629E60DF604246002300249361D4615A
S11341B04B46002B4DD00023A64C0093019400984D
S11341C001990FB03CBC90469946A246AB46F0BD5F
S11341D00098019901F0F8F98146002800D19BE08C
S11341E0009801990022002301F098FC0028E6D0F1
S11341F03000390001F0E8F90028E0D0200029005F
S113420001F0E2F90028DAD004AB984604234246D0
S113421004938F4B1461556153600023002413628F
S113422000239361D46153461B789660D7605BB2D8
S1134230022B04D0404601F0D1F900280ED103F03E
S113424029FB2223036009E04246002300249361F2
S1134250D461404601F0C2F9002837D043461B6AB6
S1134260002B04D003F016FB43461B6A036043464D
S1134270DC699B6900930194A1E72000290001F007
S1134280A3F900289BD0002200232000290001F07C
S11342904BFC002800D192E704AB98460123424628
S11342A004936B4B536043465A469E60DF601A6228
S11342B01C615D6153461B785BB2002BC4D00020A7
S11342C0424665499061D161022BC2D103F0E2FA02
S11342D021230360C2E700232000290001F01EFC13
S11342E0002800D16BE704AB9846012342460493AF
S11342F0574B4146536043465A461A6200229E6019
S1134300DF601C615D61534B8A61CB610092019354
S11343104B46022B9DD152E73000390001F054F98D
S1134320002800D15CE72000290001F04DF90028A5
S113433000D155E7009801990B00020003F016F92B
S113434004AB9846002861D1032342460493404BB2
S11343501062536053461B789660D7605BB2146159
S113436055619946002B2FD1E02241463B4B120662
S11343708A61CB61300000220023390001F0D4FBB4
S1134380002800D156E70022354B2000290002F016
S113439057FB04000D0001F029F902000B00200076
S11343A0290001F0BBFB002805D1E0222D4B1206A9
S11343B041468A61CB6153461B785BB299464B46B2
S11343C0022B00D036E73AE700224146264B300064
S11343D08A61CB6100220023390001F0A5FB00288B
S11343E0EDD000221E4B2000290002F029FB04001E
S11343F00D0001F0FBF802000B002000290001F081
S11344008DFB0028D7D10022134BD1E7012342466C
S113441004930F4B536043464A461C615D611A6224
S11344209E60DF60002453461C57002C00D10BE72C
S1134430002300221900100001F0CEFE43469861CB
S1134440D961022C00D141E703E7C04610000020E7
S1134450248200000000F03F0000F0FFFFFFEF4760
S11344600000E03FFFFFEFC70000F07FF0B5D64645
S11344704F464646C0B5DA4A88B00B00914255DC37
S11344804A005208024300D1EFE0002900DA79E142
S1134490D44B002202F0D4FA3625D34C0B006D42E3
S11344A0A34247DC1A15D14C1B031B0B9846A446A8
S11344B08024CF4B640343442340CE4C62445219BE
S11344C05C4045461B1599462543CA4B2900914437
S11344D0002202F035FD434602331B0306000F00A1
S11344E01B0B0022022B2FDC002301F017FB0028FA
S11344F000D1C1E04B46002B00D14CE1484603F00B
S113450055F8BD4ABD4B04000D0002F099FABC4AAF
S113451006000F00BB4B2000290002F091FA0200B4
S11345200B003000390001F047FB07E0AE4C0025DA
S1134530A342B7DD02000B0001F03EFB08B01CBC37
S113454090469946A246F0BD8023DB0501F034FB7A
S113455002000B003000390001F03EFE0400484622
S11345600D0003F023F82200029003912B00200099
S113457029000494059502F063FA04000D00A24B8F
S1134580020043449A460B000094019502F058FA45
S113459004000D009D4A9E4B02F052FA9D4A9E4B28
S11345A001F00AFB22002B0002F04AFA9B4A9C4BC2
S11345B001F002FB22002B0002F042FA994A9A4BC6
S11345C001F0FAFA009A019B02F03AFA974A009035
S11345D00191974B2000290002F032FA954A964B3C
S11345E001F0EAFA22002B0002F02AFA934A944BD3
S11345F001F0E2FA22002B0002F022FA0B00020082
S11346000098019901F0D8FA0D0041468D4B040041
S11346105B1A51460B43002B54DD00228A4B3000B9
S1134620390002F00DFA32003B0002F009FA4B4661
S11346300A00010000910192002B72D1130029009D
S11346400200200001F0B8FA049A059B02F0F8F980
S113465002000B000098019902F072FC02000B00AA
S11346603000390002F06CFC68E7002200230020CF
S1134670764901F0B1FD61E7754A764B30003900A7
S113468002F0DEF902000B0000206F4902F058FC32
S1134690320004000D003B003000390002F0D0F974
S11346A00B0002002900200002F0CAF94B46040066
S11346B00D00002B72D102000B003000390002F013
S11346C03FFC3BE74B46002B00D1C5E00298039921
S11346D0494A4A4B02F0B4F92200009001912B00A0
S11346E03000390002F02CFC049A059B02F0A8F972
S11346F0434A04000D0002980399424B02F0A0F9CA
S113470002000B002000290002F01AFC32003B00DA
S113471002F016FC02000B000098019902F010FC54
S11347200CE7354A354B0298039902F089F9009A4F
S1134730019B069007912000290001F03DFA049A9C
S1134740059B02F07DF92E4A04000D00029803999E
S11347502C4B02F075F902000B002000290001F037
S11347602BFA02000B000098019902F0E9FB3200D9
S11347703B0002F0E5FB02000B000698079902F0EB
S1134780DFFBDBE602000B0002F0DAFB0022002371
S113479001F022FDD2E600200021CFE6484602F0D7
S11347A005FF154A154B0090019102F049F9144A8E
S11347B00290039100980199124B02F041F9020012
S11347C00B002000290002F0BBFB32003B0002F08A
S11347D0B7FB02000B000298039902F0B1FBADE6AF
S11347E0FFFF0F0000005043FFFFEF7F01FCFFFFBE
S11347F0645F09000000F03F0000E0FE422EE63F47
S1134800763C7935EF39EA3D86EBF9FF44523EDFD9
S113481012F1C23FDE03CB966446C73F59932294FC
S11348202449D23F935555555555E53F9FC678D0F9
S1134830099AC33FAF788E1DC571CC3F04FA97998E
S11348409999D93F51B806000000E03F000050C3D9
S1134850555555555555D53F22002B00300039008C
S113486002F06EFB049A059B02F0EAF8F6E6C046F5
S1134870F0B5CE46474680B53A4A83B004000D00F1
S11348800B0091421CDC4A00520802435AD0002912
S11348905FDB0022344B02F0D3F80D000B0036210D
S11348A0324A0400494293420EDD22002B002000CC
S11348B0290001F081F903B00CBC90469946F0BD83
S11348C02A4A00219342F0DC294A18159446604490
S11348D04018C20F91461B031B0B4844984602F034
S11348E065FE4A46234B06009B1A42461B051A43A3
S11348F00F0020001100FFF7B9FD1F4A04000D004E
S11349001E4B3000390002F09BF81D4A00900191C3
S11349101C4B2000290002F093F802000B000098C1
S1134920019901F049F9184A04000D00174B3000B1
S1134930390002F085F802000B002000290001F084
S11349403BF9B8E7002200230020114901F044FCA0
S1134950B1E702000B0002F0F3FA0022002301F099
S11349603BFCA8E7FFFF0F0000005043FFFFEF7F71
S113497001FCFFFFFF030000362BF111F3FE593D4C
S11349800EE526157BCBDB3F00609F501344D33FDD
S1134990000050C3F0B557464E464546DE461C005F
S11349A01300E0B5650091B06D0800930194070011
S11349B00E0080468946A2462B4331D0674B7400D3
S11349C064089C4227DC24D09D4224DC634B9D4236
S11349D000D181E000239B464B46002B00DA7FE0A8
S11349E0002A2CD15D4B9D4200D197E05C4B9D4247
S11349F066D08023DB059A4500D1B9E3594B9A452B
S1134A001DD14B46002B1ADB3800310000F0F8FCB6
S1134A1008E000280DD0544B9C46644427430AD137
S1134A2000204F4911B03CBC90469946A246AB4683
S1134A30F0BDA542CADD4D4800F0D2FDF2E73800D2
S1134A40310000F0BDFD4346002B1DD1002C04D0E5
S1134A50434AB3009B08934216D15346002B00DA15
S1134A60C5E34B46002BDDDA3F4B9C465B46644472
S1134A701C4301D100F053FC5B46012BD2D18024AE
S1134A8024060B191900CDE7F30F013B98465B464A
S1134A904246134357D0364B9D4277DD354B9D42FA
S1134AA000DCB1E3344B9C4200DCA8E35346002B0A
S1134AB043DD324A324B1000190001F0C1FFB1E767
S1134AC0534638003100002BACDA3A0033000020A2
S1134AD0234901F081FBA5E7002A00D17AE79AE790
S1134AE0284B9D422CDC244B9D4200DC78E7264970
S1134AF02B158C466344142B01DC00F0F3FB3421AA
S1134B00CB1A0099D94008009840824200D067E748
S1134B100123194001335B1A9B4661E7124BE318EA
S1134B201F4300D17CE7144B9C4200DC27E3009830
S1134B3001995346002B00DB74E70020002171E744
S1134B4002239B464CE73A0033003800310002F060
S1134B50F7F902000B0001F03FFB63E70000F07F70
S1134B600000F03F0000E03F000010C01882000089
S1134B700000E0410000F043FFFFEF3F9C75008818
S1134B803CE4377EFFFF3F4301FCFFFFE94B00227B
S1134B909C4206DC0022E84B01F052FF35220C0057
S1134BA05242E64D2315AC46634499462403E44D32
S1134BB0E44B240B914425439C4209DDE24B9C4287
S1134BC000DCB6E301239C46E04BE1449C4665448B
S1134BD0002300240022089309940C930D940024CC
S1134BE0D74B06920793069A079B29000A900B91CC
S1134BF002F0A6F9069A079B06000F000A980B9983
S1134C0000F0DAFF02000B000020CD4901F0E4FAC5
S1134C100A00010013000E910F92020039003000C7
S1134C2001F00EFF0A000100802004910592130098
S1134C300022691080250003844602920393002217
S1134C40AD050D4365442B190298039914001D000A
S1134C5001F0F6FE02000B003000390002F070F99A
S1134C60069A079B06000F002000290002F068F94D
S1134C7002000B000A980B9902F062F9029A039B56
S1134C8001F0DEFE02000B003000390002F058F99A
S1134C900E9A0F9B01F0D4FE049D059E0690079189
S1134CA02A0033002800310001F0CAFE06000F007C
S1134CB0A74AA84B01F0C4FEA74AA84B00F07CFF0A
S1134CC032003B0001F0BCFEA54AA64B00F074FF85
S1134CD032003B0001F0B4FEA34AA44B00F06CFF89
S1134CE032003B0001F0ACFEA14AA24B00F064FF8D
S1134CF032003B0001F0A4FE9F4AA04B00F05CFF91
S1134D00320004000D003B003000390001F098FE31
S1134D1002000B002000290001F092FE029E039F76
S1134D2004000D000498059932003B0000F044FF94
S1134D30069A079B01F084FE22002B0000F03CFF42
S1134D4032000A900B913B00300039000296039721
S1134D5001F076FE00228A4B04000D0000F02CFFC7
S1134D600A9A0B9B00F028FF00260F0032000B006C
S1134D700298039901F064FE002202900391804B93
S1134D803000390002F0DCF822002B0002F0D8F8E1
S1134D9002000B000A980B9902F0D2F8049A059BC2
S1134DA001F04EFE320004000D00069807993B0006
S1134DB001F046FE02000B002000290000F0FCFE7A
S1134DC004000D0002000B000298039900F0F4FEA9
S1134DD00026E0226B4B120630000F0001F030FE7B
S1134DE0029A039B049005913000390002F0A8F860
S1134DF002000B002000290002F0A2F8624A614B75
S1134E0001F01EFE614A04000D00614B30003900C0
S1134E1001F016FE02000B002000290000F0CCFE79
S1134E200C9A0D9B00F0C8FE060048460F0002F0E5
S1134E30BDFB04000D000498059932003B0000F00E
S1134E40BBFE089A099B00F0B7FE22002B0000F07D
S1134E50B3FE002022002B000290039102F070F8B0
S1134E60089A099B02F06CF8049A059B02F068F812
S1134E7002000B003000390002F062F80490059142
S1134E805B464246013B134300D1ABE100232C4C6B
S1134E90069307940098019900260B0032000F0036
S1134EA002F04EF8029A039B01F0CAFD009A019B9E
S1134EB004000D000498059901F0C2FD02000B00E6
S1134EC02000290000F078FE04000D0002980399E8
S1134ED032003B000094019501F0B2FD02000B008A
S1134EE006000F002000290000F066FE294B040094
S1134EF00D0002008B46994200DC4FE1264BCB1893
S1134F00034300D0E2E100980199244A244B00F0C5
S1134F1053FE3200029003913B002000290002F06E
S1134F200FF802000B000298039900F011FEAA4644
S1134F3038E0C046FFFF0F000000404301FCFFFFC4
S1134F400000F03F8E98030079B60B000000F0FFDC
S1134F50EF4E454A287ECA3F65DBC9934A86CD3F5A
S1134F6001411DA96074D13F4D268F515555D53F40
S1134F70FFAB6FDBB66DDB3F033333333333E33FD8
S1134F800000084009C7EE3FFD033ADCF5015B145D
S1134F90E02F3EBEFFFF8F40000070BFFE822B65F6
S1134FA04715973C002800D090E1EC4A53469446BC
S1134FB08022520311001B15634419410B009046D3
S1134FC0E74A5B4494465C00640DE64D6444254125
S1134FD01A00AA43110042461B031B0B134314225D
S1134FE0141B234199465B460020002B00DAB0E1F4
S1134FF002000B003000390001F0A2FF0B00020098
S113500006000F000098019900F0D6FD4B461B05E1
S11350100D00984600240022D34B2000290001F003
S11350200FFD3200029003913B002000290001F0A3
S113503087FF02000B000098019901F081FFCB4A21
S1135040CB4B01F0FDFCCB4A06000F00CA4B2000FD
S1135050290001F0F5FC02000B003000390000F0DB
S1135060ABFD04000D0002000B000298039900F050
S1135070A3FD029A039B06000F0001F061FF0200EA
S11350800B002000290001F05BFF32000090019129
S11350903B003000390001F0D3FC04000D00B74A96
S11350A0B74B01F0CDFCB74AB74B01F049FF2200E2
S11350B02B0001F0C5FCB54AB54B00F07DFD220084
S11350C02B0001F0BDFCB34AB34B01F039FF2200C1
S11350D02B0001F0B5FCB14AB14B00F06DFD22008C
S11350E02B0001F0ADFC02000B003000390001F090
S11350F027FF04000D0002000B003000390001F00E
S11351009FFC8023029003910022DB0520002900EC
S113511001F016FF02000B000298039901F05CF8FD
S1135120009A019B04000D003000390001F088FC56
S1135130009A019B00F040FD02000B0020002900B2
S113514001F0FEFE32003B0001F0FAFE02000B000B
S11351500020944901F0F4FE43465B181A15002A16
S113516000DC49E11900069A079B01F069FC59E447
S11351703A0033003800310001F062FC52E4534637
S1135180002B00DBD9E4009C019D802212062B0039
S11351909446634420001900FFF744FC4B005B086D
S11351A09A46814B9A4500DCB1E0804B5B441A433C
S11351B00CD132003B0001F0C3FE02000B0000984A
S11351C0019900F0BBFC002800D1EEE6069807998F
S11351D0774A784B01F034FC754A764B01F030FC89
S11351E0FFF720FC0023744C0693079452E6020058
S11351F00B0000206B4900F0EFFFFFF732FC534631
S1135200002B00DB99E454E46C4B9C42F7DD654BC6
S11352109C4200DD4AE40022624B01F091FEC02270
S1135220674BD20504000D0001F00AFC654A060034
S11352300F00654B2000290001F002FC00220290BF
S11352400391624B2000290001F0FAFB02000B00DD
S11352505F48604901F074FE22002B0001F0F0FB6E
S113526002000B0000205C4901F06AFE2200049059
S113527005912B002000290001F0E2FB02000B0045
S11352800498059901F0DCFB544A4D4B01F0D8FB1E
S113529002000B000298039901F052FE02000B0079
S11352A004000D003000390000F086FC00203200BC
S11352B03B000290039101F043FE02000B0020002A
S11352C0290001F03DFE04900591D9E5444A454B7F
S11352D00698079901F0B4FB414A424B01F0B0FB38
S11352E0FFF7A0FB002A01D0FFF7A9FB1432D31A61
S11352F02A001A41110099408D4201D0FFF776FB34
S113530001231A40DB189B1A9B46FFF76FFB002210
S1135310314B904691469A4500DC7BE645E6020017
S11353200B0001F00DFE02000B0000F055FFFFF72B
S113533079FB80232C4CDB05089309942B4B2C4CD4
S113534000220C930D9480242A4BE40206920793C6
S113535049E44B465B4299464AE6C04602FCFFFFDD
S113536001FCFFFFFFFF0F00432EE63FEF39FAFE7B
S1135370422EE63F396CA80C615C20BED0A4BE72FC
S11353806937663EF16BD2C541BDBB3E2CDE25AF0D
S11353906A56113F93BDBE166CC1663F3E555555C6
S11353A05555C53F0000F03FFFCB904000346F3FA0
S11353B059F3F8C21F6EA5010000F0BFFEFFEF3FD6
S11353C04715F73F44DF5DF80BAE543E0000D03F75
S11353D0555555555555D53F0000E03FFE822B6588
S11353E09C7500883CE4377E03B8E23F06D0CF4387
S11353F0EBFD4C3E0000F83F4A4600F099F9B2E656
S11354006C4BF0B50A0046460D00D6464F461900CF
S1135410C0B5040006002940994200D1A7E0002D40
S113542000DC81E02F1500D18EE0634B12039C4613
S11354308023120B5B0367441A43FB0768D47B1079
S11354409C46E30F9B189B188022162100260025FA
S113545064009203A818984202DC85181B1AB61837
S1135460E00F5B0001391B18640052080029F1D1D8
S113547000229246904680222020120609E0AB4288
S113548038D0E10FC9180138CB186400520800283D
S113549018D041465118AB42F1DD8F18B846A946E1
S11354A0002930DB5B1B8C42AD416D425B1B641AEF
S11354B0E10FC918013892444D46CB1864005208D4
S11354C00028E6D1234328D153465B083B49721098
S11354D088464244F10702D5802109060B43614600
S11354E01E000F05BD18300029001CBC90469946CB
S11354F0A246F0BDA142C4D88F18B846002942DBA9
S113550099460023D3E7002F2FDB6F1CB946C9E768
S1135510E10F52008A18640091E75346013335D0F5
S1135520534601335B08D1E76B005B080343DAD0D1
S11355300027002D32D1E20A153F6405002AFAD073
S113554080235B031A4224D180200023400300E01F
S11355500B005200591C0242FAD02020401AFF1AB4
S11355602300C3408C401A435FE7A9469AE72B0007
S11355700200290001F064FA32002B0000F01CFB49
S113558006000D00AFE7002FBFDAB9E701360023AC
S11355909CE70123002120205B42E0E72B0002006E
S11355A0290001F0CDFC02000B0000F015FE0600FE
S11355B00D0098E70000F07F01FCFFFF0000E03FD2
S11355C049004B0819007047034B48009C464008AB
S11355D06044C00F7047C046000010800020704730
S11355E0002001497047C0460000F87FF0B5C64668
S11355F000B5CB0F98464A4C4B005B0D1E1982B088
S113560007000A00132E35DC002E57DB454B04003F
S113561033411F000F4007430D00002F24D05B08C7
S11356201C000C4020430027002807D0132E00D173
S113563073E08022D202324199430A434346DE009A
S1135640394B11009E1934687568380022002B000C
S113565000F0B2FA009001910098019922002B0009
S113566001F06EFC04000D002000290002B004BC0F
S11356709046F0BD332E0CDD80230400DB000D00CA
S11356809E42F1D102000B0000F096FA04000D00D6
S1135690EAE7264C0D00A446012463446442DC403E
S11356A0A446614604000142DED049080142C5D047
S11356B08027FF051F4188430743BFE74B005B0872
S11356C0034304000D00002BCED00B031B0B03433C
S11356D01A005B42134380221B0B120313404A0C33
S11356E05204134319004346DA000F4B9B181C68FD
S11356F05D6822002B0000F05FFA00900191009891
S1135700019922002B0001F01BFC42464B005B0870
S1135710D607334304001D00A6E780273F0688E729
S113572001FCFFFFFFFF0F0028820000EDFBFFFFDD
S11357304B0070B55B0D14000A00002B1AD14B000E
S11357405B08034315D00022224B01F079F9224B68
S11357500A009C4222DB4B005B0D363B1F4DE318D5
S1135760AB4220DC002B0DDD1D4C1B0522401A43EF
S1135770110070BD1B4DAB42F0D102000B0000F0D4
S11357801BFAF6E71D00353518DA174B02009C4268
S11357900ADC0B001548164900F032F8134A144B82
S11357A001F04EF9E5E702000B001248124900F03F
S11357B027F8104A104B01F043F9DAE7084C363366
S11357C022401B051343190000220C4B01F038F949
S11357D0CFE7C04600005043B03CFFFFFE07000087
S11357E0FFFF0F80FF07000050C3000059F3F8C209
S11357F01F6EA5019C7500883CE4377E0000903C38
S113580030B54A00DB0FDB0752081A43110030BDE4
S1135810002243088B4274D303098B425FD3030AEB
S11358208B4244D3030B8B4228D3030C8B420DD3FE
S1135830FF22090212BA030C8B4202D3121209028C
S113584065D0030B8B4219D300E0090AC30B8B42CA
S113585001D3CB03C01A5241830B8B4201D38B0378
S1135860C01A5241430B8B4201D34B03C01A52411D
S1135870030B8B4201D30B03C01A5241C30A8B4260
S113588001D3CB02C01A5241830A8B4201D38B024B
S1135890C01A5241430A8B4201D34B02C01A5241EF
S11358A0030A8B4201D30B02C01A5241CDD2C30961
S11358B08B4201D3CB01C01A524183098B4201D3DD
S11358C08B01C01A524143098B4201D34B01C01AC8
S11358D0524103098B4201D30B01C01A5241C30840
S11358E08B4201D3CB00C01A524183088B4201D3AF
S11358F08B00C01A524143088B4201D34B00C01A9B
S11359005241411A00D20146524110467047FFE706
S113591001B5002000F0F0F802BDC0460029F7D020
S113592076E7704703460B437FD4002243088B423B
S113593074D303098B425FD3030A8B4244D3030B12
S11359408B4228D3030C8B420DD3FF22090212BAD7
S1135950030C8B4202D31212090265D0030B8B4253
S113596019D300E0090AC30B8B4201D3CB03C01A3D
S11359705241830B8B4201D38B03C01A5241430B18
S11359808B4201D34B03C01A5241030B8B4201D308
S11359900B03C01A5241C30A8B4201D3CB02C01A73
S11359A05241830A8B4201D38B02C01A5241430AEB
S11359B08B4201D34B02C01A5241030A8B4201D3DA
S11359C00B02C01A5241CDD2C3098B4201D3CB0181
S11359D0C01A524183098B4201D38B01C01A524130
S11359E043098B4201D34B01C01A524103098B4234
S11359F001D30B01C01A5241C3088B4201D3CB001F
S1135A00C01A524183088B4201D38B00C01A524101
S1135A1043088B4201D34B00C01A5241411A00D2B1
S1135A2001465241104670475DE0CA0F00D049421A
S1135A30031000D34042534000229C4603098B428A
S1135A402DD3030A8B4212D3FC22890112BA030A12
S1135A508B420CD3890192118B4208D38901921194
S1135A608B4204D389013AD0921100E08909C30919
S1135A708B4201D3CB01C01A524183098B4201D31B
S1135A808B01C01A524143098B4201D34B01C01A06
S1135A90524103098B4201D30B01C01A5241C3087E
S1135AA08B4201D3CB00C01A524183088B4201D3ED
S1135AB08B00C01A5241D9D243088B4201D34B0008
S1135AC0C01A5241411A00D20146634652415B104A
S1135AD0104601D34042002B00D54942704763462B
S1135AE05B1000D3404201B5002000F005F802BD70
S1135AF00029F8D016E770477047C0468446101C4A
S1135B0062468C46191C634600E0C0461FB500F08F
S1135B1035FF002801D40021C8421FBD10B500F094
S1135B208FFE4042013010BD10B500F027FF002861
S1135B3001DB002010BD012010BDC04610B500F0EF
S1135B401DFF002801DD002010BD012010BDC0464E
S1135B5010B500F0AFFE002801DC002010BD0120CC
S1135B6010BDC04610B500F0A5FE002801DA0020E3
S1135B7010BD012010BDC04641024300C20F490AB6
S1135B801B0E00207E2B0DDD9D2B0CDC80200004E1
S1135B900143952B0ADC9620C31AD9404842002AB7
S1135BA000D108007047034BD018FBE7963B99409F
S1135BB0F4E7C046FFFFFF7FF8B54546DE4657468B
S1135BC04E460C03E0B54E00C90F88460D00610A2D
S1135BD0440F0C43C70019035800DB0F9B464B0AC4
S1135BE0510F0B43760D400D1900D200D84500D15A
S1135BF0AEE0351A002D00DCF6E000280FD1134387
S1135C0000D1DBE06B1E002B00D037E1BA1A9742BB
S1135C10BF41641A7F42E41B0126170024E0C64BEF
S1135C209E424DD080231B041943382D00DD07E12B
S1135C301F2D00DD38E12020431B9A460B005046FF
S1135C408340994613004846EB40184303005046EE
S1135C508240501E8241E9401A43BA1A611A97429F
S1135C60A441170064420C1B230262D56402650A36
S1135C70002D00D1DFE0280001F0EEFD0300083B19
S1135C801F2B00DDD2E020223C00D21A9D40D440DC
S1135C909F4025439E4200DDC4E09E1B731C1F2BC6
S1135CA000DDF1E0202238002900D21AD8409140CA
S1135CB097402C000143781E8741DC4000260F43A7
S1135CC07B0709D00F233B40042B05D03B1DBB426F
S1135CD0BF417F42E4191F0023022CD5964B0136A5
S1135CE09E4200D19AE04546944BFF081C40600751
